:020000040800F2
:10000000400A00209D010008814B00082D45000892
:100010007D4B000899090008875400080000000083
:10002000000000000000000000000000874B0008F6
:100030009D0A000800000000854B0008394E0008AA
:10004000B7010008B7010008B7010008B7010008B0
:10005000B7010008B7010008B7010008B7010008A0
:10006000B7010008B7010008B7010008AD09000892
:10007000B7010008B7010008B7010008B701000880
:10008000B7010008BD090008B5030008B701000862
:100090009D090008B7010008B7010008B701000872
:1000A000B7010008B7010008B7010008B701000850
:1000B000D94E0008B701000800000000B701000891
:1000C000B70100080000000000000000B7010008B0
:1000D00000000000B7010008B7010008B7010008E0
:1000E000B7010008B7010008000000000000000090
:1000F0000000000000000000000000000000000000
:1001000000000000000000000000000000000000EF
:100110000000000000000000B7010008B70100085F
:1001200000000000000000000000000000000000CF
:1001300000000000000000000000000000000000BF
:10014000B7010008B701000800000000B70100086F
:10015000B7010008B7010008B7010008B70100089F
:10016000B7010008B701000800000000000000000F
:10017000000000000000000000000000000000007F
:1001800000000000B7010008DFF80CD000F000F913
:100190000048004739570008400A002006488047B9
:1001A00006480047FEE7FEE7FEE7FEE7FEE7FEE75C
:1001B000FEE7FEE7FEE7FEE7C54E000889010008FE
:1001C0002DE9F05F0546002092469B46884606468C
:1001D000814640241BE0284641464746224600F01F
:1001E00020F853465A46C01A914110D3114618467A
:1001F000224600F061F82D1A67EB01084F462246AF
:100200000120002100F058F817EB00094E41201E94
:10021000A4F10104DFDC484631462A464346BDE8E6
:10022000F09F202A04DB203A21FA02F000217047D7
:1002300021FA02F3D040C2F120029140084319464E
:100240007047D2B201E000F8012B491EFBD2704783
:100250000022F6E710B513460A4604461946FFF792
:10026000F0FF204610BD0EB5C10F80EAE0700844D3
:10027000CA07002140F233438DE80E000A460B46C0
:1002800000F038F803B000BD30B5041E71F1000471
:1002900004DB4FF00044404264EB0101141E73F193
:1002A000000405DB1C464FF00043524263EB04039D
:1002B000994208BF904230BD202A04DB203A00FA60
:1002C00002F1002070479140C2F1200320FA03F3AD
:1002D00019439040704710B5141E73F1000408DAFA
:1002E000401C41F1000192185B411A4301D120F0FA
:1002F000010010BD2DE9F04D92469B4611B1B1FAB7
:1003000081F202E0B0FA80F220329046FFF7D4FF8B
:1003100004460F4640EA0A0041EA0B0153465A469A
:10032000084313D0114653EA010019D0C8F1400226
:100330005046FFF776FF05460E4650465946424660
:10034000FFF7BAFF084305D0012004E020463946F4
:10035000BDE8F08D0020054346EAE0762C433743A4
:100360000A986305E40AA0EB08000022FD0A44EAAB
:1003700047540A3002D500200146E9E7010510196B
:100380006941DDE9084500196941BDE8F04DA2E782
:10039000064C074D06E0E06840F0010394E80700D2
:1003A00098471034AC42F6D3FFF7F2FE9C57000892
:1003B000BC57000810B5024800F030FF10BD000027
:1003C0004800002070B505466C6A206C00F05000B3
:1003D000D0B9206C40F4007020642068C06800F43C
:1003E000406068B9607E58B9206C20F48070206449
:1003F000206C00F4805018B9206C40F0010020649B
:10040000204600F05DFE03E0A06B016B28468847A4
:1004100070BD70B505466C6A206C40F040002064E9
:10042000606C40F004006064204600F0F6FE70BD91
:1004300070B50446656A284600F0EEFE70BD70B5E2
:10044000044600252068806800F00300012806D1DA
:100450002068006800F0010008B1012000E00020E1
:1004600000283BD02068806800F00D00012800D1F2
:1004700000E0002050B100BF2068806840F002001A
:100480002168886003202168086009E0206C40F042
:1004900010002064606C40F001006064012070BDB9
:1004A00001F0AAFE054613E001F0A6FE401B02285B
:1004B0000ED92068806800F0010048B1206C40F03F
:1004C00010002064606C40F0010060640120E6E7E9
:1004D0002068806800F001000028E5D10020DEE7F8
:1004E00070B5044600252068806800F003000128EC
:1004F00006D12068006800F0010008B1012000E08A
:10050000002080BB206880681B49084008B9012092
:1005100000E0002048B9206C40F010002064606CBE
:1005200040F001006064012070BD2068806840F0E8
:1005300001002168886001F05FFE054614E001F0CB
:100540005BFE401B02280FD92068006800F0010004
:1005500050B9206C40F010002064606C40F0010045
:1005600060640120E0E705E02068006800F0010019
:100570000028E4D00020D7E73F0000800020274972
:100580008879C98821B1012922D002293CD12DE0E6
:10059000B3EE070A224981ED000AB3EE0E0A81ED9F
:1005A000020A204991ED000A1F49D1ED000A9FED92
:1005B0001F1A60EE810AB4EEE00AF1EE10FA03D2DF
:1005C0000121164AD18002E00221144AD1801BE0A9
:1005D000174991ED000ADFED170AB4EEE00AF1EEDB
:1005E00010FA02DB02210D4AD1800DE0124991ED93
:1005F000000ADFED120AB4EEE00AF1EE10FA02D8BA
:100600000121064AD18000BF00BF0449C988814248
:1006100002D00121014AD18170470000F802002078
:1006200010000020D0030020AC030020CDCC4C3FB4
:1006300038000020E17A543F3C000020CDCC4C3DF6
:1006400010B52DED028BBC48C08928B1BB4803F022
:100650006FFFBB4803F06CFFB748C08820B101288A
:1006600009D002287ED1BCE0B44803F061FFB44851
:1006700003F05EFF45E1B048C08940B3DFEDB13A19
:100680009FEDB13ADFEDB12A9FEDB12ADFEDB11A4E
:100690009FEDB11ADFEDB10A9FEDAE0AA74803F056
:1006A000EDFFDFEDA83A9FEDA83ADFEDA82A9FED18
:1006B000A82ADFEDA81AB7EE001ADFEDA90A9FED10
:1006C000A50A9F4803F0DAFF00209B49C881A5488E
:1006D00090ED000AA448D0ED000A80EE801AB0EE3A
:1006E000418AA04890ED010AF0EE400AB0EE480AB7
:1006F000924803F03DFF9D4890ED000AF0EE400A5D
:10070000B3EE070A8E4803F033FF8C4890ED080AD9
:100710008B48D0ED080AB4EEE00AF1EE10FA09D2E7
:10072000864890ED080A924880ED000A0020824930
:10073000488108E0824890ED080A8D4880ED000A63
:1007400001207D4948819FED7F0A8A4880ED000A9B
:10075000874890ED000ADFED880A20EE200ABDEE02
:10076000C00A00E0CCE0854880ED050A814890EDA4
:10077000000ADFED810A20EE200ABDEEC00A7F48A4
:1007800080ED060A40697D49C968884203DD7B48DF
:10079000C0687A494861754890ED000A9FED781A63
:1007A000C0EE010A9FED740A60EE800A734890ED76
:1007B000050AB8EEC00AF4EEC00AF1EE10FA0FDD39
:1007C0006A4890ED000ADFED6E0A80EE201A9FED78
:1007D0006A0A21EE000ABDEEC00A684880ED050AEB
:1007E0008FE05548C08940B3DFED663AB6EE003A77
:1007F000DFED562A9FED562ADFED591A9FED551A67
:10080000DFED610A9FED530A4C4803F037FFDFED3F
:100810005D3AB6EE003ADFED4D2A9FED4D2ADFED51
:10082000501A9FED4F1ADFED590A9FED490A4448CF
:1008300003F024FF00204049C8814A4890ED000A97
:100840004948D0ED000A80EE801AB0EE418A454852
:1008500090ED010AF0EE400AB0EE480A374803F086
:1008600087FE424890ED000AF0EE400AB3EE070A18
:10087000334803F07DFE314890ED080A3048D0ED52
:10088000080AB4EEE00AF1EE10FA09D22B4890ED16
:10089000080A384880ED000A00202749488108E00E
:1008A000274890ED080A334880ED000A01202249CC
:1008B00048819FED370A2E4880ED000A2D4890EDC3
:1008C000000ADFED2D0A20EE200ABDEEC00A2B48FB
:1008D00080ED060A264890ED000ADFED270A20EE9B
:1008E000200ABDEEC00A254880ED050A806923492B
:1008F0000969884203DD214800692049886100E0D8
:1009000000BF00BF0C48808920B94FF410601B491C
:100910004861886119484069C0F534411D48006844
:10092000C0F89C10154881691A480068C0F81C126C
:10093000BDEC028B10BD0000F8020020E405002091
:1009400010060020CDCC4C3D3333733F0AD723BC77
:100950000AD7233C000000006F12033A6F12833B5A
:10096000CDCCCC3DC403002040000020D0030020AB
:10097000380000203C000020000034471000002018
:10098000000004420AD7233DCDCC4CBDCDCC4C3E1B
:10099000E17A543F0401002000BFFEE710B5024891
:1009A00001F021F810BD0000DC00002010B5024865
:1009B00001F04AFA10BD00009800002010B502486E
:1009C00001F042FA10BD0000B4020020054A01689F
:1009D000891A1422B1FBF2F1890001640149083936
:1009E000C16370470800024030B590F840500124C0
:1009F000AC40C56B6C60046863604468102C04D123
:100A00000468A2600468E16003E00468A16004680F
:100A1000E26030BD00201F49087A098921B101290F
:100A200012D0022928D11BE01B4991ED090AB5EE2D
:100A3000C00AF1EE10FA03DB0121164A118102E02F
:100A40000221144A118117E0134991ED090AB5EE0C
:100A5000C00AF1EE10FA02D202210E4A11810BE017
:100A60000D4991ED090AB5EEC00AF1EE10FA02DB6C
:100A70000121084A118100BF00BF0649098981424E
:100A800003D00121034A118202E00021014A1182B0
:100A900070470000F802002018050020704772B669
:100AA00000BFFEE72DE9F04104460E46002700BFD7
:100AB00094F83C00012802D10220BDE8F081012019
:100AC00084F83C0000BF2046FFF7B9FC074697BBFF
:100AD000012020642068806820F0804021688860C0
:100AE000012E05D12068806840F080402168886030
:100AF0002068806840F000402168886001F07CFB3D
:100B0000054619E001F078FB401B0A2814D920683B
:100B1000806800F00040B0F1004F0DD1206C20F053
:100B2000020040F01000206400BF002084F83C0068
:100B300000BF0120C1E70CE02068806800F00040A1
:100B4000B0F1004FDED0206C20F0020040F0010038
:100B5000206400BF002084F83C0000BF3846ACE7AA
:100B6000704770477047704770B594B002460B46A7
:100B70000024186800B100BF1068B0F1A04F02D186
:100B80004648009002E04FF0A0400090009810B955
:100B9000012014B070BD00BF92F83C00012801D1C3
:100BA0000220F6E7012082F83C0000BF1068806850
:100BB000C0F38000002864D100988068C0F38000F2
:100BC00000285ED13649186890B392F830005D680D
:100BD00045EA40308D6825F46045284388601068F8
:100BE000806800F00300012806D11068006800F05A
:100BF000010008B1012000E00020002846D1009843
:100C0000806800F00300012806D10098006800F019
:100C1000010008B1012000E0002088BB9D68186831
:100C200028438D6840F61F76B543284388602DE041
:100C3000FFE7886820F4604088601068806800F0F2
:100C40000300012806D11068006800F0010008B117
:100C5000012000E0002098B90098806800F00300AF
:100C6000012806D10098006800F0010008B10120B9
:100C700000E0002020B9886840F61F75A84388600E
:100C800004E0106C40F020001064012400BF00203C
:100C900082F83C0000BF20467BE7000000010050C6
:100CA00000030050F0B595B00246002500200090EA
:100CB000C868012800D000E000BF00BF92F83C00E7
:100CC000012802D1022015B0F0BD012082F83C00BD
:100CD00000BF10688068C0F38000002879D14868A0
:100CE000052812D21068006B0E7906EB46067700D5
:100CF0001F26BE40B0430F7907EB47077F000E6801
:100D0000BE4030431668306343E048680A2814D276
:100D10001068406B0E79761F06EB460677001F269B
:100D2000BE40B0430F797F1F07EB47077F000E6877
:100D3000BE403043166870632BE048680F2814D219
:100D40001068806B0E790A3E06EB460677001F2678
:100D5000BE40B0430F790A3F07EB47077F000E689C
:100D6000BE4030431668B06313E01068C06B0E7964
:100D70000F3E06EB460677001F26BE40B0430F79B4
:100D80000F3F07EB47077F000E68BE4030431668F1
:100D9000F0631068806800F00C0008B1012000E0EA
:100DA0000020002870D108680A2813D310688069D1
:100DB0000E780A3E06EB46070726BE40B0430F7882
:100DC0000A3F07EB47078E68BE4030431668B061A4
:100DD00010E05FE1106840690E7806EB46070726D1
:100DE000BE40B0430F7807EB47078E68BE403043E4
:100DF0001668706148691668F668C6F3C106760021
:100E000000FA06F40869012806D0022812D0032847
:100E10001ED0042839D129E01068006EA34E30405E
:100E20000E784FF0004747EA86662643304316683F
:100E3000306663E01068406E9C4E30400E784FF094
:100E4000004747EA8666264330431668706655E0D9
:100E50001068806E954E30400E784FF0004747EA9C
:100E60008666264330431668B06647E01068C06E59
:100E70008E4E30400E784FF0004747EA8666264394
:100E800030431668F06639E039E01068006E00F013
:100E9000F8400E78B0EB866F05D11068006E20F038
:100EA0000040166830661068406E00F0F8400E781A
:100EB000B0EB866F05D11068406E20F000401668D8
:100EC00070661068806E00F0F8400E78B0EB866FA8
:100ED00005D11068806E20F000401668B06610687A
:100EE000C06E00F0F8400E78B0EB866F05D1106848
:100EF000C06E20F000401668F06600BF00BF1068AA
:100F0000806800F00300012806D11068006800F036
:100F1000010008B1012000E0002000287ED1C8684F
:100F200001280AD01068D0F8B0000F780126BE4022
:100F3000B0431668C6F8B00032E01068D0F8B000D0
:100F40000F780126BE4030431668C6F8B000086826
:100F50000A2813D3106886690878093800EB40071F
:100F60000720B84026EA00000E78093E06EB460648
:100F70008F68B74038431668B06111E01068406967
:100F80000E78761C06EB46070726BE40B0430F7866
:100F90007F1C07EB47078E68BE40304316687061C0
:100FA000434B0868102803D1986800F4000070B122
:100FB0000868112803D1986800F0807038B108687B
:100FC00012286CD1986800F48000002867D110685E
:100FD000B0F1A04F02D13748019002E04FF0A0409D
:100FE00001901068806800F00300012806D11068A5
:100FF000006800F0010008B1012000E0002070BB93
:10100000019880B10198806800F00300012808D1A0
:101010000198006800F0010018B100E033E0012001
:1010200000E00020D8B90868102819D11068B0F184
:10103000A04F15D1986840F4000098601E480068E1
:101040001E4EB0FBF6F000EB80004000009002E086
:101050000098401E009000980028F9D11FE013E08E
:101060000868112808D11068B0F1A04F04D1986821
:1010700040F08070986012E0086812280FD19868DC
:1010800040F4800098600AE0106C40F0200010648A
:10109000012504E0106C40F020001064012500BF21
:1010A000002082F83C0000BF28460CE600F0FF83D9
:1010B00000030050000100500C00002040420F00CF
:1010C00010B5024600202CE0002118E001EB81035E
:1010D000444C04EB830353F8203000EE103AB8EE92
:1010E000400A414B03EB8003D3ED000A30EE200AA7
:1010F0003D4B03EB800383ED000A4B1CD9B205295D
:10110000E4DB394901EB800191ED000AF1EE040ABC
:1011100080EE201A344901EB800181ED001A411C58
:10112000C8B20528D0DB00200DE02F4901EB80017B
:1011300091ED000ABCEEC00A10EE101A2B4B43F8DA
:101140002010411CC8B20528EFDB2748D0ED000A6B
:101150009FED271A9FED270A00EE810A264880EDB1
:10116000010A2148D0ED010A9FED241A9FED240ABF
:1011700000EE810A204880ED000A1B48D0ED020AEB
:101180009FED201A9FED200A00EE810A1A4880ED9B
:10119000040A1548D0ED030A9FED1C1A9FED1C0AA6
:1011A00010EE810A144880ED030A0F48D0ED040ABE
:1011B0009FED161A9FED140A10EE810A0E4880ED7D
:1011C000020A002008E09FED130A074901EB8001A5
:1011D00081ED000A411CC8B20528F4DB04F004FAD2
:1011E00010BD00002003002084030020980300208D
:1011F000143F463C0BB5263D0C030020A69B443C07
:1012000067D5E73C9FABADBB2DB22C419FABAD3B4F
:10121000FA7E2D4100000000704770472DE9F0472D
:1012200004464FF00009C846C24620680568206899
:10123000466805F00400042803D106F004000428E1
:1012400007D005F0080008285AD106F00800082841
:1012500056D1206C00F0100018B9206C40F40070DA
:101260002064B348006800F01F0078B1B0480068FF
:1012700000F01F00052809D0AD48006800F01F00ED
:10128000092803D02068B0F1A04F03D12068D0F81E
:101290000C8003E04FF0A040D0F80C802068C068BC
:1012A00000F4406030BB08F4005018BB05F00800A3
:1012B00008281FD120688068C0F3800090B920689A
:1012C000406820F00C0021684860206C20F4807099
:1012D0002064206C00F4805060B9206C40F0010064
:1012E000206407E0206C40F010002064606C40F047
:1012F000010060642046FFF7E3FE0C2021680860CF
:1013000005F02000202803D106F02000202807D077
:1013100005F04000402868D106F0400040287DD10B
:10132000206C40F4005020648148006800F01F00E9
:1013300078B17F48006800F01F00052809D07C487C
:10134000006800F01F00092803D02068B0F1A04F0A
:1013500003D12068D0F80C8003E04FF0A040D0F813
:101360000C802068C06C00F0C000E8BB08F0007082
:1013700038B12068C06800F44060A8BB08F4005091
:1013800090BB05F04000402842D16948006800F059
:101390001F0078B16648006800F01F00062809D0D9
:1013A0006348006800F01F00072803D02068B0F1F0
:1013B000A04F03D12068D0F80CA003E04FF0A0406C
:1013C000D0F80CA00AF4001070B920688068C0F34F
:1013D000C000A8B92068406820F06000216848601B
:1013E000206C20F4805001E012E017E02064206CB3
:1013F00000F4807060B9206C40F00100206407E0C8
:10140000206C40F010002064606C40F001006064CB
:101410002046FFF7A5FB60202168086005F08000EA
:1014200080280DD106F08000802809D1206C40F47E
:1014300080302064204600F0A7F9802021680860F1
:1014400005F48070B0F5807F0FD106F48070B0F5A0
:10145000807F0AD1206C40F4003020642046FFF7E2
:1014600081FB4FF480702168086005F40070B0F5CE
:10147000007F0FD106F40070B0F5007F0AD1206C18
:1014800040F4802020642046FFF76DFB4FF400708D
:101490002168086005F0100010282DD106F010001A
:1014A000102829D1606B012801D1814613E0204F1B
:1014B000083FB86800F01F0038B92068C06800F025
:1014C000010040B14FF0010905E0B86800F4404068
:1014D00008B14FF00109B9F1010F0AD1206C40F4B5
:1014E00080602064606C40F0020060642046FFF77A
:1014F00094FE10202168086005F48060B0F5806FCC
:1015000013D106F48060B0F5806F0ED1206C40F4EA
:1015100080402064606C40F0080060644FF480609C
:10152000216808602046FFF71CFBBDE8F08700003B
:1015300008030050F0B595B00446002600250020B1
:10154000009014B9012015B0F0BD206918B1202019
:10155000005D00B100BF206C00F01000002853D1E6
:10156000206C98BB002060640021E164A06484F8D2
:101570003C00204600F00AF92068806800F08050A6
:1015800020BB2046FEF75BFF0646206C00F01000F3
:10159000E0B9DEB9206C20F4885040F002002064ED
:1015A0002068806820F0405021688860206880684A
:1015B00040F08050216888606E4800686E49B0FB3A
:1015C000F1F000EB80004000009003E005E000989F
:1015D000401E009000980028F9D12068806800F033
:1015E000805030B12068806800F00050B0F1005F9A
:1015F0000AD1206C20F0020040F010002064606CE2
:1016000040F0010060640126206C00F0100000280A
:1016100073D1002EFCD120688068C0F380000028C0
:10162000F6D1206C20F4807040F002002064534F0B
:101630002068B0F1A04F02D15148019002E04FF074
:10164000A04001902068806800F00300012806D1C6
:101650002068006800F0010008B1012000E00020CF
:10166000B0B9019870B10198806800F003000128BA
:1016700006D10198006800F0010008B1012000E0E7
:10168000002028B9B86820F4403061680843B86089
:10169000606B012802D04FF4805100E00021607E91
:1016A00041EA4030E1680843A1680843054320202F
:1016B000005D012813D1607E38B9A08C401E4FF424
:1016C000803141EA4040054309E0206C20F00200EF
:1016D00040F020002064606C40F001006064A06A6B
:1016E000012803D0D4E90A01084305432068806833
:1016F00000F00C0010B1012001E032E0002068B9D8
:101700002068C06844F2020188432168C860207ED6
:10171000810394F8300041EA400005432068C06826
:101720001849084028432168C8602069012809D168
:101730002068006B20F00F00E169491E0843216812
:10174000086305E02068006B20F00F002168086343
:1017500000206064206C20F0020040F00100206452
:1017600006E0206C20F0020040F01000206401260A
:101770003046E8E60C00002040420F000003005015
:101780000001005007C0F0FF7047000010B586B0A0
:101790000446142101A8FEF75BFD2068B0F1A04FBC
:1017A00061D100BF3148406940F080502F49486105
:1017B0000846406900F08050009000BF00BF00BFA5
:1017C0000846406940F4003048610846406900F42A
:1017D0000030009000BF00BF00BF0846406940F4E1
:1017E000802048610846406900F48020009000BFD6
:1017F00000BF0C200190032002900020039001A95B
:101800004FF0904000F020FC42F2030001900320D2
:1018100002900020039001A9154800F015FC15481E
:10182000154908600020486000211348816080212C
:10183000C16089000161890041612021816100212D
:10184000C16100F074FB08B1FFF729F900BF0A4835
:10185000A063446200BF00221146122001F0E8F8A4
:10186000122001F0D5F806B010BD000000100240B3
:101870000004004808000240980000202DE9F041D3
:1018800004460D461646002720688068C0F3800095
:1018900000287DD100BF94F83C00012802D102202D
:1018A000BDE8F081012084F83C0000BF4848006892
:1018B00000F01F0000286CD12046FEF711FE0746FD
:1018C000002F76D1206C40F60161884340F480708F
:1018D00020643F48006800F01F0018B12068B0F194
:1018E000A04F0FD1206C20F4801020642068C068C5
:1018F00000F0007000B3206C20F4005040F48050E1
:10190000206419E0206C40F4801020642068B0F15D
:10191000A04F03D02F492068884205D14FF0A04046
:10192000C06800F0007000E0002028B1206C20F4B6
:10193000005040F480502064206C00F48050B0F5DA
:10194000805F04D1606C20F00600606401E000203C
:10195000606400BF002084F83C0000BF1E48A16BFB
:1019600088621E48A16BC8621D48A16B08631C20D9
:10197000216808602068406840F0100021684860D5
:101980002068C06840F001002168C860226802E059
:101990001AE013E00DE002F1400133462A46A06B45
:1019A00000F0F0FA2068806840F004002168886048
:1019B0000BE000BF002084F83C0006E0012700BFD8
:1019C000002084F83C0000E00227384668E7000069
:1019D0000803005000010050C5030008310400084E
:1019E0001304000870472DE9F05F044600252068C5
:1019F00046692068D0F80490206887682068D0F88D
:101A00000CA02068D0F810B02068D0F8188006F03C
:101A10000100002855D007F00100C0B10120216865
:101A2000886007F0020018B1204600F007FA0EE0C7
:101A300007F0040010B145F4006508E007F0080065
:101A400010B145F4805502E0204600F0F6F907F4A5
:101A50008070C8B14FF480702168886007F400700E
:101A600018B1204600F0ECF90EE007F4806010B1E8
:101A700045F4005508E007F4006010B145F48045D6
:101A800002E0204600F0DBF907F48030C8B14FF4E3
:101A900080302168886007F4003018B1204600F0DB
:101AA000D1F90EE007F4802010B145F4004508E0BC
:101AB00007F4002010B145F4803502E0204600F024
:101AC000C0F906F0080038B10AF0100020B145F462
:101AD000007510202168C86006F0040040B10AF0CB
:101AE000080028B108202168C860204600F0A0F94D
:101AF00006F0020038B12068C06800F0030010B1A1
:101B0000204600F096F906F0400038B10BF01000C6
:101B100020B145F4806510202168086106F020009E
:101B200040B10BF0080028B1082021680861204668
:101B300000F080F906F0100038B12068006900F06C
:101B4000030010B1204600F076F906F4003040B1F1
:101B500009F0100028B1102021684860204600F0EC
:101B60006BF906F4803040B109F0080028B1082074
:101B700021684860204600F066F906F4004088B30A
:101B800009F0040078B306F4807020B108F0010079
:101B900008B145F0010506F4007020B108F002001C
:101BA00008B145F0020506F4806020B108F0040099
:101BB00008B145F0040506F40060A0B108F070001B
:101BC00088B108F07000402817D006DC10280BD030
:101BD00020280CD0302819D10CE0502810D06028D3
:101BE00014D110E01DE019E045F008050FE045F0C4
:101BF00010050CE045F0200509E045F0400506E041
:101C000045F0800503E045F4807500E000BF00BFAB
:101C10002068806920F070002168886104202168B4
:101C200048602DB1606A284360622046FFF7DAFE03
:101C3000BDE8F09F70B504460CB9012070BD94F862
:101C4000200010B9204600F0AFF82068006840F08E
:101C500001002168086000F0CFFA05460DE000F0B1
:101C6000CBFA401B0A2808D9606A40F40030606251
:101C7000052084F820000120E0E72068406800F09B
:101C800001000028EBD02068006820F002002168E5
:101C9000086000F0B1FA05460DE000F0ADFA401B17
:101CA0000A2808D9606A40F400306062052084F890
:101CB00020000120C2E72068406800F002000028F0
:101CC000EBD1207E012806D12068006840F080001A
:101CD0002168086005E02068006820F08000216825
:101CE0000860607E012806D12068006840F040004E
:101CF0002168086005E02068006820F04000216845
:101D00000860A07E012806D12068006840F020000D
:101D10002168086005E02068006820F02000216844
:101D20000860E07E012806D12068006820F01000DD
:101D30002168086005E02068006840F01000216814
:101D40000860207F012806D12068006840F0080064
:101D50002168086005E02068006820F0080021681C
:101D60000860607F012806D12068006840F0040008
:101D70002168086005E02068006820F00400216800
:101D80000860D4E9020108432169084361690843F6
:101D90006168491E08432168C86100206062012013
:101DA00084F82000002049E710B586B004461421CD
:101DB00001A8FEF74DFA1C492068884231D100BFC6
:101DC0001A48C06940F000701849C8610846C069E7
:101DD00000F00070009000BF00BF00BF08464069DF
:101DE00040F4003048610846406900F4003000903B
:101DF00000BF00BF4FF4C0500190022002900020AD
:101E00000390032004900920059001A9C00600F06A
:101E10001BF900221146142000F00AFE142000F0E5
:101E2000F7FD06B010BD0000006400400010024045
:101E300070477047704770477047704770477047EA
:101E4000704770477047704770B50446E06B05688F
:101E50002068066894F84010042088402840D0B1DB
:101E600006F00400B8B12068006800F0200028B92E
:101E70002068006820F004002168086094F8401091
:101E800004208840E16B4860E06A00284ED020467C
:101E9000E16A88474AE094F84010022088402840D0
:101EA00008B306F00200F0B12068006800F02000DE
:101EB00040B92068006820F00A002168086001200D
:101EC00084F8210094F8401002208840E16B4860BB
:101ED00000BF002084F8200000BFA06A30B3204675
:101EE000A16A884722E094F84010082088402840E2
:101EF000E0B106F00800C8B12068006820F00E00CC
:101F00002168086094F8401001208840E16B486027
:101F10000120A06384F8210000BF002084F8200085
:101F200000BF206B10B12046216B884770BD70B593
:101F3000044600250CB9012070BD022084F8210060
:101F40002068056843F6F0708543D4E90101084331
:101F5000E16808432169084361690843A1690843AE
:101F6000E16908430543206805602046FEF72EFD21
:101F70000020A063012084F82100002084F82000C4
:101F800000BFD9E72DE9F04104460D4616461F462D
:101F90004FF0000800BF94F82000012802D1022071
:101FA000BDE8F081012084F8200000BF94F82100F2
:101FB00001282CD1022084F821000020A063206891
:101FC000006820F00100216808603B46324629463F
:101FD0002046FEF709FDE06A30B12068006840F055
:101FE0000E00216808600BE02068006840F00A00DD
:101FF000216808602068006820F0040021680860FB
:102000002068006840F001002168086006E000BF19
:10201000002084F8200000BF4FF002084046BFE7D0
:1020200070B5044600F0E8F806462546681C10B175
:1020300004480078054400BF00F0DEF8801BA84289
:10204000FAD370BD0800002078B503460A46002187
:10205000C0E001268E40156805EA0604002C73D006
:10206000157905F00305012D04D0157905F0030558
:10207000022D13D198684E000325B540A8434E00A9
:10208000D568B54028439860586801258D40A8431D
:102090001579C5F300158D4028435860157905F072
:1020A0000305032D09D0D8684E000325B540A84389
:1020B0004E009568B5402843D860157905F00305B2
:1020C000022D13D1CE0803F1200555F826004D0747
:1020D000EE0E0F25B540A8434E07F60E1569B54024
:1020E0002843CE0803F1200545F8260018684E0065
:1020F0000325B540A843157905F003054E00B5400A
:1021000028431860556805F44035002D61D000BFA4
:10211000334DAD6945F00105314EB5613546AD69C8
:1021200005F00105009500BF00BF4FEAB6358E08E7
:1021300055F826008D072E0F0F25B540A843B3F1A3
:10214000904F02D1002510E043E0264DAB4201D173
:1021500001250AE0244DAB4201D1022505E0234DC3
:10216000AB4201D1032500E005258E07360FB540AF
:1021700028431F4D8E0845F826001E4D2868A043B1
:10218000556805F4801505B120431A4D28602D1DB2
:102190002868A043556805F4001505B12043154D86
:1021A0002D1D2860134D2D1F2868A043556805F488
:1021B000003505B120430F4D2D1F28602D1F2868C5
:1021C000A043556805F4803505B12043094D083D0D
:1021D0002860491C1568CD40002D7FF43AAF78BDCA
:1021E000001002400004004800080048000C0048AD
:1021F00008000140080401400148006870470000E1
:1022000000000020024600BF92F8C000012801D162
:1022100002207047012082F8C00000BF022082F82F
:10222000C100481C80B91068D0F8CC0320F002032C
:102230001068C0F8CC331068D0F8CC0340F001032C
:102240001068C0F8CC3318E01068D0F8CC0340F028
:1022500002031068C0F8CC331068D0F8CC0320F02B
:102260000C0008431368C3F8CC031068D0F8CC0303
:1022700040F001031068C0F8CC33012082F8C1009F
:102280000020C6E730B503460C4693F8C10002288B
:1022900000D130BD00BF93F8C000012801D1022059
:1022A000F7E7012083F8C00000BF022083F8C100D7
:1022B000108800F4E0519088C0F3080001431089B1
:1022C00000F400700143108A00F4804001439089BB
:1022D00000F400400143908A134D05EA0040014399
:1022E000906900F000700143106A00F080400143E3
:1022F000D06900F0004001431868803000EBC41042
:10230000806B0A4D284008431D68803505EBC415D5
:10231000A863012083F8C10000BF002083F8C0003B
:1023200000BF00BFB5E700000000FF010020003C37
:10233000F8B504460CB90120F8BD0220C43404F8F5
:10234000030C002020606060A060E060206160619C
:10235000C43C207A00F0010008B335492068884267
:102360000DD100BF3348806940F000503149886189
:102370000846806900F00050009000BF00BF206850
:10238000066826F44046208A00F44040064326F4BE
:102390004056A08A00F4405006432068066020465C
:1023A00000F04AF8207A00F0020048B12068066880
:1023B00026F44076A08900F4407006432068066049
:1023C000012084F8C10000BF002084F8C00000BFD5
:1023D000002529E00021C5EBC50204F1180040F8F2
:1023E0002210C5EBC50200EB82004160C5EBC502BF
:1023F00004F1180000EB82008160C5EBC50204F116
:10240000180000EB8200C160C5EBC50204F11800A2
:1024100000EB82000161C5EBC50204F1180000EB7E
:1024200082008161681CC5B2052DD3D9002083E7E5
:10243000007401400010024008B5094A0168914249
:102440000DD100BF0749896941F00051054A9161EA
:102450001146896901F00051009100BF00BF08BD1D
:10246000007401400010024010B586B004461421EB
:1024700001A8FDF7EDFE20492068884239D100BF50
:102480001E48406940F480201C4948610846406964
:1024900000F48020009000BF00BF00BF08464069E4
:1024A00040F4003048610846406900F40030009074
:1024B00000BF00BF4FF44040019002200290002076
:1024C0000390032004900D20059001A90C48FFF70C
:1024D000BBFD4FF440700190022002900020039059
:1024E000032004900D20059001A94FF09040FFF7C4
:1024F000ABFD06B010BD00000074014000100240AA
:102500000004004870B504460D46FFF775FE064608
:102510000CE0681C50B1FFF76FFE801BA84200D88A
:1025200025B9072084F8C100032070BD2068D0F8C9
:102530008803C0F300400028EBD0012084F8C100DC
:1025400000BF002084F8C00000BF00BFEDE770B5F9
:1025500004460D46164694F8C100022800D170BD0D
:10256000022084F8C100052D04D13146204601F037
:1025700011FE04E032462946204601F0C6FE012045
:1025800084F8C1000020EAE730B5044694F8C100A1
:10259000022800D130BD00BF94F8C000012801D14D
:1025A0000220F7E7012084F8C00000BF022084F871
:1025B000C100052928D1012A06D0022A08D0042A00
:1025C0000AD0082A10D10BE018682568E86114E0E9
:1025D00018682568686210E018682568A8620CE031
:1025E00018682568E86208E0072084F8C10000BF89
:1025F000002084F8C00000BF00BF00BF94F8C100F5
:1026000007287DD10120C5E7012A06D0022A0BD078
:10261000042A4CD0082A74D150E01D68206880300C
:1026200000EBC110C5619AE01D682068803000EBA6
:10263000C1104562586868B32068803000EBC11053
:10264000006820F440552068803000EBC110056020
:102650002068803000EBC11000685D682843256861
:10266000803505EBC11528605868B0F5005F06D1CC
:102670009D682068803000EBC110C56116E0586885
:10268000B0F5405F12D19D682068803000EBC1102A
:1026900085620BE02068803000EBC110006820F4F8
:1026A00040502568803505EBC115286057E01D684E
:1026B0002068803000EBC110856250E01D68206802
:1026C000803000EBC110C562586888B32068803044
:1026D00000EBC110006820F440452068803000EB1A
:1026E000C11005602068803000EBC11000685D6893
:1026F00040EA85052068803000EBC110056001E0EC
:1027000034E023E05868B0F5005F06D19D6820688A
:10271000803000EBC110C56117E05868B0F5405F2C
:1027200013D19D682068803000EBC11085620CE0F9
:10273000FFE72068803000EBC110006820F44040C3
:102740002568803505EBC115286008E0072084F86E
:10275000C10000BF002084F8C00000BF00BF00BF60
:1027600094F8C100072801D1012013E7012084F863
:10277000C10000BF002084F8C00000BF00BF09E70F
:10278000024600BF92F8C000012801D10220704724
:10279000012082F8C00000BF022082F8C10010684A
:1027A0000068084313681860012082F8C10000BF68
:1027B000002082F8C00000BF00BFE8E72DE9F0412B
:1027C00004460D4616461F4694F8C100022801D162
:1027D000BDE8F08100BF94F8C000012801D10220BB
:1027E000F6E7012084F8C00000BF022084F8C10091
:1027F0003B4632462946204601F00EFD012084F872
:10280000C10000BF002084F8C00000BF00BFDFE7A8
:10281000024600BF92F8C000012801D10220704793
:10282000012082F8C00000BF022082F8C1001068B9
:10283000D0F8940308431368C3F89403012082F886
:10284000C10000BF002082F8C00000BF00BFE6E763
:10285000024600BF92F8C000012801D10220704753
:10286000012082F8C00000BF022082F8C100106879
:10287000D0F8980308431368C3F89803012082F83E
:10288000C10000BF002082F8C00000BF00BFE6E723
:1028900070B504460D46164694F8C100022800D1D2
:1028A00070BD00BF94F8C000012801D10220F7E7F5
:1028B000012084F8C00000BF022084F8C100052D6B
:1028C00004D13146204601F079FC04E03246294625
:1028D000204601F03AFDC5EBC50204F1180000EBFB
:1028E000820031688160C5EBC50204F1180000EB7D
:1028F00082007168C160C5EBC50204F1180000EBED
:102900008200B1680161C5EBC50204F1180000EB5B
:102910008200F1684161C5EBC50204F1180000EBCB
:102920008200316981612946204601F0F3FB0120D4
:1029300084F8C10000BF002084F8C00000BF00BFC1
:10294000AEE70000034800680349097808440149DC
:1029500008607047000000200800002010B50848FB
:10296000006840F0100006490860032000F09EF85F
:102970000F2000F007F800F02BF8002010BD000039
:102980000020024070B504460E4800784FF47A717A
:10299000B1FBF0F00C490968B1FBF0F5284601F0F5
:1029A00089F808B1012070BD102C07D20022214601
:1029B000501E00F03DF80548046001E00120F2E7F8
:1029C0000020F0E7080000200C0000200400002098
:1029D00008B500BF0D48806940F001000B498861CF
:1029E0000846806900F00100009000BF00BF00BFF2
:1029F0000846C06940F08050C8610846C06900F0D0
:102A00008050009000BF00BF08BD000000100240D1
:102A100001460846002809DB00F01F0301229A4006
:102A200043099B0003F1E023C3F8002100BF704776
:102A30002DE9F05F80460D461646002702F0A8FDFE
:102A4000074639462A46334601F00700C0F1070A17
:102A5000BAF1040F02D94FF0040A01E0C0F1070AED
:102A6000D14600F1040ABAF1070F02D24FF0000A72
:102A700001E0A0F1030AD4464FF0010A0AFA09FA6C
:102A8000AAF1010A0AEA020A0AFA0CFA4FF0010B4B
:102A90000BFA0CFBABF1010B0BEA030B4AEA0B043C
:102AA0002146404602F07CFDBDE8F09F00BF00F0EB
:102AB0000702064B19684FF6FF031940044B0B43FE
:102AC00043EA0221014B196000BF70470CED00E0A2
:102AD0000000FA05F8B50446002600250027206806
:102AE00000F48030B0F5803F73D17A48C06900F0BF
:102AF000805070B900BF7748C06940F08050754978
:102B0000C8610846C06900F08050009000BF00BF57
:102B100001277148006800F48070B0B96E48006801
:102B200040F480706C490860FFF766FB064606E0DB
:102B3000FFF762FB801B642801D90320F8BD6648BB
:102B4000006800F480700028F2D06248006A00F447
:102B50004075002D6BD0A08800F44070A84266D06C
:102B60005C48006A20F440750121080490FAA0F046
:102B7000B0FA80F0594A02EB8000C0F8001400203F
:102B8000090491FAA1F1B1FA81F102EB8101C1F8D6
:102B900000045048056205F00100B8B3FFF72CFBB4
:102BA000064608E0FFF728FB801B41F28831884287
:102BB00001D90320C2E74020022191FAA1F1B1FA24
:102BC00081F108430121B1EB601F03D14148006846
:102BD0001FE03BE04020022191FAA1F1B1FA81F11E
:102BE00008430221B1EB601F02D13A48006A10E0AD
:102BF0004020022191FAA1F1B1FA81F108430421A8
:102C0000B1EB601F03D13348406802E00FE0314868
:102C1000406A4021022292FAA2F2B2FA82F21143F1
:102C200001F01F020121914008400028BAD0294834
:102C3000006A20F440706168084326490862012F49
:102C400004D10846C06920F08050C861207800F0A7
:102C5000010038B11F48006B20F00300A168084351
:102C60001C490863207800F02000202807D119486B
:102C7000006B20F01000E1680843164908632078D3
:102C800000F08000802807D11248C06A20F4F87054
:102C9000216908430F49C862208800F48050B0F5CC
:102CA000805F07D10B48006B20F480706169084396
:102CB00008490863208800F48040B0F5804F07D1B0
:102CC0000448006B20F48050A1690843014908635F
:102CD000002033E700100240007000400000424234
:102CE00070B504460D4600260CB9012070BDA248FF
:102CF000006800F00700A8420ED29F48006820F04C
:102D0000070028439C4908600846006800F0070057
:102D1000A84201D00120E9E7207800F00200022853
:102D200007D19648406820F0F000A1680843934915
:102D30004860207800F0010000287CD060680128FD
:102D40003BD12020010391FAA1F1B1FA81F10843AE
:102D50000121B1EB601F02D1884800681DE02020EE
:102D6000010391FAA1F1B1FA81F108430221B1EB1B
:102D7000601F02D18148006A0FE02020010391FA10
:102D8000A1F1B1FA81F108430421B1EB601F02D136
:102D90007A48406801E07948406A20210A0392FAA3
:102DA000A2F2B2FA82F2114301F01F020121914016
:102DB000084000287CD1012098E7606802283BD1B8
:102DC0002020010591FAA1F1B1FA81F10843012116
:102DD000B1EB601F02D1694800681DE020200105A9
:102DE00091FAA1F1B1FA81F108430221B1EB601F20
:102DF00002D16248006A0FE02020010591FAA1F19A
:102E0000B1FA81F108430421B1EB601F02D15B48A4
:102E1000406801E05948406A20210A0592FAA2F26E
:102E2000B2FA82F2114301F01F02012191400840E1
:102E3000E8BB01205AE758E02020022191FAA1F1D5
:102E4000B1FA81F108430121B1EB601F02D14B4877
:102E500000681DE02020022191FAA1F1B1FA81F170
:102E600008430221B1EB601F02D14448006A0FE021
:102E70002020022191FAA1F1B1FA81F10843042145
:102E8000B1EB601F02D13D48406801E03B48406A19
:102E90002021022292FAA2F2B2FA82F2114301F048
:102EA0001F0201219140084008B901201EE7FFE7F9
:102EB0003248406820F00300616808432F494860A9
:102EC000FFF79AF9064608E0FFF796F9801B41F2F2
:102ED0008831884201D9032008E72848406800F07B
:102EE0000C006168B0EB810FEED12348006800F060
:102EF0000700A8420ED92048006820F007002843A8
:102F00001D4908600846006800F00700A84201D08B
:102F10000120EBE6207800F00400042807D11748D0
:102F2000406820F4E060E168084314494860207874
:102F300000F00800082808D11048406820F46050CC
:102F4000216940EAC1000D49486000F051F80B4981
:102F5000496801F0F001F02292FAA2F2B2FA82F28C
:102F6000D140074A515CC8400649086006480068DD
:102F7000FFF708FD0020B9E60020024000100240E3
:102F8000845700080C00002004000020014800685D
:102F9000704700000C00002000B5FFF7F7FF07495D
:102FA000496801F4E0614FF4E06292FAA2F2B2FAE9
:102FB00082F2D140024A515CC84000BD001002407C
:102FC0009457000800B5FFF7E1FF0749496801F48D
:102FD00060514FF4605292FAA2F2B2FA82F2D140FA
:102FE000024A515CC84000BD0010024094570008DE
:102FF0002DE9F0410024002500270026A0461F48A7
:10300000446804F00C0078B3042802D008282CD1BE
:1030100002E0DFF86C802CE004F470104FF47011C3
:1030200091FAA1F1B1FA81F1C84016490E5C13483A
:10303000C06A00F00F000F2191FAA1F1B1FA81F1FD
:10304000C84011490D5C04F4803040B12A46002389
:103050000B481946FDF7B4F8A0FB067102E00B48D7
:10306000A0FB0671B84604E000E000BFDFF8108066
:1030700000BF00BF4046BDE8F081000000100240E4
:1030800000127A00645700087457000800093D00D8
:10309000F8B504460CB90120F8BD207800F0010015
:1030A00000287BD0FA48406800F00C0004280CD0BF
:1030B000F748406800F00C00082845D1F448406803
:1030C00000F48030B0F5803F3ED12020010391FA1A
:1030D000A1F1B1FA81F108430121B1EB601F02D1E6
:1030E000EB4800681DE02020010391FAA1F1B1FA3C
:1030F00081F108430221B1EB601F02D1E448006A6C
:103100000FE02020010391FAA1F1B1FA81F1084307
:103110000421B1EB601F02D1DD48406801E0DC48CA
:10312000406A20210A0392FAA2F2B2FA82F2114313
:1031300001F01F020121914008400028B1D06068D1
:1031400000282BD10120A7E700BF6068B0F5803FC1
:1031500006D1CF48006840F48030CD49086029E0AE
:10316000606858B9CA48006820F48030C8490860CF
:103170000846006820F4802008601BE06068B0F515
:10318000A02F0CD1C248006840F48020C0490860DC
:103190000846006840F4803008600BE0A1E0BC48BD
:1031A000006820F48030BA4908600846006820F4BE
:1031B0008020086000BFB648C06A20F00F00A168F8
:1031C0000843B349C8626068A0B3FFF715F8054625
:1031D00006E0FFF711F8401B642801D903205BE7E4
:1031E0002020010391FAA1F1B1FA81F108430121F4
:1031F000B1EB601F02D1A64800681EE02020010349
:1032000091FAA1F1B1FA81F108430221B1EB601FFB
:1032100002D19F48006A10E02020010391FAA1F139
:10322000B1FA81F108430421B1EB601F03D1984842
:10323000406802E010E09648406A20210A0392FAB2
:10324000A2F2B2FA82F2114301F01F020121914071
:1032500008400028BDD044E0FEF7CEFF054606E05A
:10326000FEF7CAFF401B642801D9032014E7202081
:10327000010391FAA1F1B1FA81F108430121B1EB07
:10328000601F02D1824800681DE02020010391FAEE
:10329000A1F1B1FA81F108430221B1EB601F02D123
:1032A0007B48006A0FE02020010391FAA1F1B1FAF6
:1032B00081F108430421B1EB601F02D174484068DA
:1032C00001E07348406A20210A0392FAA2F2B2FA9E
:1032D00082F2114301F01F020121914008400028B1
:1032E000BED1207800F0020002285CD16848406816
:1032F00000F00C0050B16648406800F00C0008284F
:1033000052D16348406800F48030E8BB202002219D
:1033100091FAA1F1B1FA81F108430121B1EB601FEB
:1033200002D15B4800681DE02020022191FAA1F142
:10333000B1FA81F108430221B1EB601F02D1544878
:10334000006A0FE02020022191FAA1F1B1FA81F187
:1033500008430421B1EB601F02D14D48406801E0F1
:103360004B48406A2021022292FAA2F2B2FA82F27B
:10337000114301F01F0201219140084028B120694A
:10338000012802D0012087E60EE04148006820F0C5
:10339000F800F82292FAA2F2B2FA82F26169914040
:1033A00008433B490860B1E0206970B3012191FAFC
:1033B000A1F0B0FA80F0374A42F82010FEF71CFF67
:1033C000054606E0FEF718FF401B022801D903203E
:1033D00062E62020022191FAA1F1B1FA81F10843BD
:1033E0000121B1EB601F02D1294800681EE02020B6
:1033F000022191FAA1F1B1FA81F108430221B1EB66
:10340000601F03D12248006A10E02CE02020022136
:1034100091FAA1F1B1FA81F108430421B1EB601FE7
:1034200002D11B48406801E01948406A202102226D
:1034300092FAA2F2B2FA82F2114301F01F020121C4
:10344000914008400028BDD01148006820F0F800E5
:10345000F82292FAA2F2B2FA82F26169914008432C
:103460000B49086052E00020012191FAA1F1B1FA64
:1034700081F1084A42F82100FEF7BEFE05460BE046
:10348000FEF7BAFE401B022806D9032004E600001E
:1034900000100240000042422020022191FAA1F1D6
:1034A000B1FA81F108430121B1EB601F02D1FB4861
:1034B00000681DE02020022191FAA1F1B1FA81F10A
:1034C00008430221B1EB601F02D1F448006A0FE00B
:1034D0002020022191FAA1F1B1FA81F108430421DF
:1034E000B1EB601F02D1ED48406801E0EB48406A53
:1034F0002021022292FAA2F2B2FA82F2114301F0E2
:103500001F020121914008400028B9D1207800F025
:103510000800082851D1A06980B3012191FAA1F0D7
:10352000B0FA80F0DE4A02EB8000C0F88014FEF7AB
:1035300063FE054606E0FEF75FFE401B022801D948
:103540000320A9E56020022191FAA1F1B1FA81F1ED
:1035500008430121B1EB601F02D1D04800681EE092
:103560006020022191FAA1F1B1FA81F10843022110
:10357000B1EB601F03D1C948006A10E01EE0602073
:10358000022191FAA1F1B1FA81F108430421B1EBD2
:10359000601F02D1C148406801E0C048406A602114
:1035A000022292FAA2F2B2FA82F2114301F01F0251
:1035B0000121914008400028BDD04FE000200121AA
:1035C00091FAA1F1B1FA81F1B54A02EB8101C1F89A
:1035D0008004FEF711FE054606E0FEF70DFE401BD7
:1035E000022801D9032057E56020022191FAA1F1B8
:1035F000B1FA81F108430121B1EB601F02D1A74864
:1036000000681DE06020022191FAA1F1B1FA81F178
:1036100008430221B1EB601F02D1A048006A0FE00D
:103620006020022191FAA1F1B1FA81F1084304214D
:10363000B1EB601F02D19948406801E09748406AA9
:103640006021022292FAA2F2B2FA82F2114301F050
:103650001F020121914008400028BED1207800F0CF
:103660000400042873D100278C48C06900F0805002
:1036700070B900BF8948C06940F080508749C8616F
:103680000846C06900F08050009000BF00BF0127CD
:103690008448006800F48070B0B98248006840F443
:1036A000807080490860FEF7A7FD054606E0FEF73A
:1036B000A3FD401B642801D90320EDE4794800688C
:1036C00000F480700028F2D000BFE068012806D125
:1036D0007248006A40F001007049086227E0E06823
:1036E00058B96E48006A20F001006C49086208462B
:1036F000006A20F00400086219E0E06805280BD198
:103700006648006A40F00400644908620846006A9E
:1037100040F0010008620AE06048006A20F0010001
:103720005E4908620846006A20F00400086200BF93
:10373000E068B8B3FEF760FD054609E0FEF75CFD02
:10374000401B41F28831884202D90320A4E48BE077
:103750004020022191FAA1F1B1FA81F1084301213F
:10376000B1EB601F02D14D4800681EE040200221ED
:1037700091FAA1F1B1FA81F108430221B1EB601F86
:1037800002D14648006A10E04020022191FAA1F1DE
:10379000B1FA81F108430421B1EB601F03D13F4826
:1037A000406802E010E03D48406A4021022292FA5F
:1037B000A2F2B2FA82F2114301F01F0201219140FC
:1037C00008400028BAD046E0FEF716FD054608E09E
:1037D000FEF712FD401B41F28831884201D90320D7
:1037E0005AE44020022191FAA1F1B1FA81F1084393
:1037F0000121B1EB601F02D1284800681DE0402084
:10380000022191FAA1F1B1FA81F108430221B1EB51
:10381000601F02D12148006A0FE04020022191FA86
:10382000A1F1B1FA81F108430421B1EB601F02D18B
:103830001A48406801E01948406A4021022292FA81
:10384000A2F2B2FA82F2114301F01F02012191406B
:1038500008400028BCD1012F05D11048C06920F0D4
:1038600080500E49C86100BFE069002874D00B4841
:10387000406800F00C0008286FD0E06902286DD184
:1038800000204FF0807191FAA1F1B1FA81F1044A60
:1038900042F82100FEF7B0FC05460CE000100240A3
:1038A0000000424200700040FEF7A6FC401B0228C8
:1038B00001D9032047E42020010591FAA1F1B1FAD2
:1038C00081F108430121B1EB601F02D17748006804
:1038D0001DE02020010591FAA1F1B1FA81F1084320
:1038E0000221B1EB601F02D17048006A0FE0202076
:1038F000010591FAA1F1B1FA81F108430421B1EB7C
:10390000601F02D16948406801E06848406A202190
:103910000A0592FAA2F2B2FA82F2114301F01F02F2
:103920000121914008400028BED1D4E90810084385
:103930005E49496821F4741108435C4948600120DC
:10394000010691FAA1F1B1FA81F1594A42F8210038
:10395000FEF752FC054609E0A5E092E041E0FEF7E3
:103960004BFC401B022801D9032038E4202001052C
:1039700091FAA1F1B1FA81F108430121B1EB601F85
:1039800002D14A4800681DE02020010591FAA1F10A
:10399000B1FA81F108430221B1EB601F02D1434823
:1039A000006A0FE02020010591FAA1F1B1FA81F13E
:1039B00008430421B1EB601F02D13C48406801E09C
:1039C0003A48406A20210A0592FAA2F2B2FA82F23B
:1039D000114301F01F020121914008400028BED090
:1039E00061E000204FF0807191FAA1F1B1FA81F10C
:1039F0002F4A42F82100FEF7FFFB054606E0FEF7DE
:103A0000FBFB401B022801D903202FE420200105E5
:103A100091FAA1F1B1FA81F108430121B1EB601FE4
:103A200002D1224800681DE02020010591FAA1F191
:103A3000B1FA81F108430221B1EB601F02D11B48AA
:103A4000006A0FE02020010591FAA1F1B1FA81F19D
:103A500008430421B1EB601F02D11448406801E023
:103A60001248406A20210A0592FAA2F2B2FA82F2C2
:103A7000114301F01F020121914008400028BED1EE
:103A800011E0E069012800D17DE40848466806F4A9
:103A90008031206A814204D106F47011606A81424B
:103AA00001D001206FE400206DE40000001002400E
:103AB0000000424270B504462546681EB0F1807F82
:103AC00001D301200FE0681E4FF0E02148610F2173
:103AD0004FF0FF3001F064FD00204FF0E0218861DD
:103AE00007200861002070BD7047704770470000D4
:103AF00030B502460B4600BF92F83C00012801D1C8
:103B0000022030BD012082F83C0000BF022082F874
:103B10003D001068416810688468174D1068A8421D
:103B200003D121F470015868014321F07001186835
:103B3000014310684160104D1068A8420BD0106816
:103B4000B0F1804F07D00D4D1068A84203D00C4D46
:103B50001068A84205D124F08004986804431068D6
:103B60008460012082F83D0000BF002082F83C0004
:103B700000BF00BFC5E70000002C0140000400406A
:103B80000040014010B504460CB9012010BD94F866
:103B90003D0028B9002084F83C00204600F02AF8B7
:103BA000022084F83D00211D206801F09DF90120CC
:103BB00084F8480000BF84F83E0001213F200155F1
:103BC0004020015541200155422001554320015517
:103BD00000BF00BF012084F8440045200155462065
:103BE00001554720015500BF012084F83D00002009
:103BF000CCE7000038B504462068B0F1804F15D1FD
:103C000000BF0B48C06940F001000949C86108467F
:103C1000C06900F00100009000BF00BF0022114603
:103C20001C20FEF705FF1C20FEF7F2FE38BD000049
:103C300000100240014691F83D00012801D001200A
:103C40007047022081F83D000868C06840F001001C
:103C50000B68D860144B086898420BD00868B0F124
:103C6000804F07D0114B0868984203D0104B08686A
:103C7000984210D1086880680E4B00EA0302062AB9
:103C80000FD0B2F5803F0CD00868006840F001000A
:103C90000B68186005E00868006840F001000B68D8
:103CA00018600020CCE70000002C01400004004018
:103CB00000400140070001002DE9F04104460D4697
:103CC000002700BF94F83C00012802D10220BDE883
:103CD000F081012084F83C0000BF022084F83D0000
:103CE000206886683748064026F47F46206886604C
:103CF0002868502833D00CDC202850D004DC002861
:103D00004BD0102851D149E0302849D040284CD11F
:103D100039E060282DD0702807D0B0F5805F03D03F
:103D2000B0F5005F41D10DE041E0D5E902136A68CA
:103D3000206801F023F92068866846F0770620683D
:103D4000866034E0D5E902136A68206801F016F94C
:103D50002068806840F480402168886027E0EA6835
:103D60006968206801F01EF95021206801F011F9FE
:103D70001DE0EA686968206801F027F96021206881
:103D800001F007F913E0EA686968206801F00AF9B0
:103D90004021206801F0FDF809E000BF00BF00BF2E
:103DA0002968206801F0F5F801E0012700BF00BF95
:103DB000012084F83D0000BF002084F83C0000BFD3
:103DC000384684E788FFFEFF704710B50446206838
:103DD0000069C0F34000D8B12068C068C0F340005B
:103DE000B0B16FF0020021680861012020772068DF
:103DF000806900F0030018B12046FFF7E5FF05E0F9
:103E0000204600F0BEF8204600F0BCF800202077E5
:103E100020680069C0F38000D8B12068C068C0F392
:103E20008000B0B16FF004002168086102202077A3
:103E30002068806900F4407018B12046FFF7C4FF85
:103E400005E0204600F09DF8204600F09BF8002099
:103E5000207720680069C0F3C000D8B12068C0682E
:103E6000C0F3C000B0B16FF0080021680861042001
:103E700020772068C06900F0030018B12046FFF7E2
:103E8000A3FF05E0204600F07CF8204600F07AF819
:103E90000020207720680069C0F30010D8B12068A6
:103EA000C068C0F30010B0B16FF010002168086165
:103EB000082020772068C06900F4407018B12046BF
:103EC000FFF782FF05E0204600F05BF8204600F097
:103ED00059F8002020772068006900F0010058B1EF
:103EE0002068C06800F0010030B16FF00100216867
:103EF0000861204600F048F820680069C0F3C0104F
:103F000058B12068C068C0F3C01030B16FF08000B5
:103F1000216808612046FFF7E8FD20680069C0F3CA
:103F2000002058B12068C068C0F3C01030B16FF4F1
:103F30008070216808612046FFF7D6FD206800697F
:103F4000C0F3801058B12068C068C0F3801030B151
:103F50006FF0400021680861204600F029F82068D1
:103F60000069C0F3401058B12068C068C0F3401029
:103F700030B16FF02000216808612046FFF7B6FDE0
:103F800010BD70477047000010B504462068B0F1BE
:103F9000804F0AD105480088401C0449088000F081
:103FA000F3FDFCF737FDFCF74BFB10BD4400002090
:103FB000704710B504460CB9012010BDA06900B1CE
:103FC00000E000BFE06F28B9002084F878002046A8
:103FD00000F02AF82420E0672068006820F0010043
:103FE00021680860204601F027F9012800D1E4E7A4
:103FF000606A10B1204600F0FCFF2068406820F4A1
:104000009040216848602068806820F02A0021687C
:1040100088602068006840F0010021680860204640
:1040200001F063F8C9E7000010B586B0044614211A
:1040300001A8FCF70DF93249206888425ED100BF23
:104040003048C06940F400302E49C8610846C06954
:1040500000F40030009000BF00BF00BF0846406978
:1040600040F4003048610846406900F40030009098
:1040700000BF00BF00BF0846406940F4802048618F
:104080000846406900F48020009000BF00BF4FF454
:104090000040019002200290002003900320049031
:1040A0000720059001A94FF09040FDF7CDFF0820B3
:1040B000019002200290002003900320049007202A
:1040C000059001A91048FDF7BFFF1048104908608E
:1040D0001020486000210E4881608021C1600021CD
:1040E000016141618161C161FDF721FF08B1FCF708
:1040F000D6FC00BF06482067446200BF06B010BD72
:1041000000440040001002400004004880000240CB
:10411000B402002006293AD2DFE801F00C151E2770
:1041200030030268D2F8842342F001030268C2F827
:1041300084332DE00268D2F8842342F0020302683F
:10414000C2F8843324E00268D2F8842342F00403E6
:104150000268C2F884331BE00268D2F8842342F07C
:1041600008030268C2F8843312E00268D2F884239C
:1041700042F010030268C2F8843309E00268D2F802
:10418000842342F020030268C2F8843300E000BFB9
:1041900000BF704710B503681A6822F007028B68E9
:1041A0001A4322F01802CB681A4303681A600B689E
:1041B000046863614B680468A36110BD10B50246D2
:1041C000146820681468D4F8A03320F020004C69EB
:1041D000204320F400608C69204320F48060CC6987
:1041E000204320F0C0600C6A204320F000604C6A3D
:1041F000204320F040408C6A40EA840020F00050C8
:104200000C6B204323F48033CC6A23431468206072
:104210001468C4F8A03310BDF0B515460024076833
:10422000803707EBC1177A6E0768803707EBC11735
:10423000BE6B202D2FD00CDC042D16D004DC012DFC
:1042400012D0022D3BD124E0082D23D0102D36D1E1
:104250000CE0402D0BD0802D1ED0B5F5807F07D00F
:10426000B5F5007F2BD118E000BF00BF00BF00BF35
:10427000D3F804C00768803707EBC117C7F83CC004
:10428000D3F808C00768803707EBC117C7F840C0EC
:1042900016E000BF00BF00BF00BFD3F804C007682E
:1042A000803707EBC117C7F844C0D3F808C00768C8
:1042B000803707EBC117C7F848C0102400E000BFE3
:1042C00000BFFE27A740BA431F68A7403A43DF68F4
:1042D000A7403A431F69A7403A435F69A7403A4362
:1042E0009F69A7403A431F69082F08D106F4007759
:1042F0002FB906F0007717B9DF69A7403A4307687E
:10430000803707EBC1177A66F0BD30B5046880349A
:1043100004EBC114236823F007039468234323F0BC
:104320001803D46823430468803404EBC114236069
:1043300015680468803404EBC1146561556804682D
:10434000803404EBC114A56130BD2DE9F041034672
:10435000D3F800C00CF1800C0CEBC11CDCF800C0E1
:104360002CF07048D3F800C00CF1800C0CEBC11C91
:10437000CCF80080D3F800C00CF1800C0CEBC11C11
:10438000DCF80000D3F800C00CF1800C0CEBC11C71
:10439000DCF86850D3F800C00CF1800C0CEBC11CA9
:1043A000DCF86460D3F800C0DCF8A04320F0200003
:1043B000D2F814C04CEA000020F40060D2F818C013
:1043C0004CEA000020F48060D2F81CC04CEA0000E7
:1043D00020F0C060D2F820C04CEA000020F000605D
:1043E000D2F824C04CEA000020F07040D2F828C077
:1043F0004CEA000020F40030D2F830C0BCF1005F7D
:1044000001D140F4003020F04000D2F834C04CEA32
:10441000000020F48020D2F850C04CEA000020F0C8
:10442000FC70D2F848C04CEA000025F01F0592F855
:1044300038C00CF01F0C4CEA050525F00045D2F8F9
:104440003CC04CEA0505D2F834C0BCF1000F05D1E0
:1044500026F48076D2F840C04CEA0606D2F844C072
:10446000BCF5606F04D0D2F844C0BCF5F05F04D155
:10447000D2F834C0BCF1400F05D126F4F056D2F882
:1044800044C04CEA0606D76C052927D2DFE801F0C4
:10449000030A11181F0024F40034D2F82CC044EA97
:1044A0004C041CE024F48024D2F82CC044EA8C0490
:1044B00015E024F40024D2F82CC044EACC040EE029
:1044C00024F48014D2F82CC044EA0C1407E024F43D
:1044D0000014D2F82CC044EA4C1400E000BF00BF26
:1044E000D3F800C00CF1800C0CEBC11CCCF8000020
:1044F000D3F800C00CF1800C0CEBC11CCCF8685058
:10450000D3F800C00CF1800C0CEBC11CCCF864603B
:10451000D3F800C00CF1800C0CEBC11CCCF854702B
:10452000D3F800C0CCF8A043BDE8F08100BFFEE79F
:104530009FED0E0A80ED000A9FED0C0A80ED010A46
:104540009FED0A0A80ED020A9FED080A80ED030A3A
:104550009FED060A80ED060A9FED040A80ED070A2A
:104560009FED020A80ED080A70470000000000007D
:10457000B0EE401AF0EE601A31EE610AF0EE400A39
:1045800090ED030AD0ED012A02EEA00A80ED030AA5
:1045900090ED030AD0ED042AB4EEE20AF1EE10FA2F
:1045A00004DD90ED040A80ED030A0CE090ED030AAF
:1045B000D0ED052AB4EEE20AF1EE10FA03D290ED46
:1045C000050A80ED030A90ED080AD0ED092AB4EE41
:1045D000E20AF1EE10FA04DD90ED090A80ED080A16
:1045E0000CE090ED080AD0ED0A2AB4EEE20AF1EEF2
:1045F00010FA03D290ED0A0A80ED080A90ED030A42
:10460000D0ED002A90ED063A30EEC33A02EE830A6E
:10461000D0ED082A90ED073A72EEC32A90ED023AE7
:10462000B0EE402A03EE622AC0ED060A90ED080AB9
:1046300080ED070A90ED080A30EE020A80ED080AC4
:1046400090ED080AD0ED092AB4EEE20AF1EE10FA74
:1046500004DD90ED090A80ED080A0CE090ED080AEF
:10466000D0ED0A2AB4EEE20AF1EE10FA03D290ED90
:104670000A0A80ED080A90ED080A704780ED000AEA
:10468000C0ED010A80ED021A9FED0A4A80ED034A4F
:1046900080ED042AC0ED052A9FED064A80ED064A0A
:1046A000C0ED071AC0ED081A80ED093AC0ED0A3ACC
:1046B000704700000000000000B589B0002006909F
:1046C0000790089018216846FBF7C2FD4FF0A04004
:1046D000354908604FF4403048600021324881601D
:1046E000012101614176002180F82010C162012181
:1046F00081620021C1600521C161012180F8301073
:1047000008214161002101764163FCF713FF08B1E4
:10471000FCF7C5F90020069006A92348FCF724FA07
:1047200008B1FCF7BCF903200090012001900020A3
:1047300003900720029000200490059069461A48D3
:10474000FCF7B0FA08B1FCF7AAF9042000900220A7
:10475000019069461448FCF7A5FA08B1FCF79FF9E7
:104760000B2000900320019069460F48FCF79AFA4D
:1047700008B1FCF794F90C200090042001906946E0
:104780000948FCF78FFA08B1FCF789F90D20009071
:104790000520019069460448FCF784FA08B1FCF74B
:1047A0007EF909B000BD00004800002010B5104897
:1047B000104908600320486000210E488160C160F4
:1047C0004FF4C0210161C90041610021017601213E
:1047D0004176002181760121C176002101770121F6
:1047E0004177FDF727FA08B1FCF759F910BD000031
:1047F00000640040DC00002008B500BF0E4840699E
:1048000040F001000C4948610846406900F0010091
:10481000009000BF00BF002211460B20FEF708F9F0
:104820000B20FEF7F5F8002211461120FEF700F9E3
:104830001120FEF7EDF808BD0010024008B500BFDA
:104840001348406940F480001149486108464069B6
:1048500000F48000009000BF00BF00BF0846406920
:1048600040F4003048610846406900F40030009090
:1048700000BF00BF00BF0846406940F48020486187
:104880000846406900F48020009000BF00BF08BDCA
:104890000010024000B5ADB0002029902A902B9066
:1048A0002C90542114A8FBF7D3FC002011901290F7
:1048B0001390242108A8FBF7CBFC20216846FBF7C6
:1048C000C7FC8148814908600020486000217F487A
:1048D0008160FDF72DFD08B1FCF7E1F80C217B4864
:1048E000FDF790FC08B1FCF7DAF80A217748FDF7EC
:1048F00009FE08B1FCF7D3F84FF4344029900020AA
:104900002A902B9008202C9029AA05216F48FDF7AA
:104910001EFE08B1FCF7C3F8002014901590169005
:10492000179001201890002019901A901B901C904D
:104930004FF000601D9000201E901F904FF000501F
:10494000209014AA05216148FDF7A2FF08B1FCF7E9
:10495000A6F829AA00215D48FDF7F9FD08B1FCF78A
:104960009EF80020149015902190229023904FF4EF
:104970008070249000202590269010202790002001
:10498000289014AA00215148FDF782FF08B1FCF7D6
:1049900086F80020259014AA03214C48FDF778FFE3
:1049A00008B1FCF77CF84FF43440119011AB0122B0
:1049B00000214648FDF7E8FD08B1FCF770F800203B
:1049C0001290139011AB022200214048FDF7DCFD4C
:1049D00008B1FCF764F811AB022203213B48FDF754
:1049E000D3FD08B1FCF75BF8002008904FF49670F7
:1049F000099000200A900B900C904FF496700D9047
:104A000000200E900F90109008AA00212F48FDF76B
:104A100039FC08B1FCF743F84FF480600890C820D7
:104A200009900D9008AA03212848FDF72BFC08B136
:104A3000FCF735F80020009008200190102002902B
:104A40000020039004900590069007906B46012289
:104A500000211E48FDF7B2FE08B1FCF720F86B46B6
:104A6000402203211948FDF7A9FE08B1FCF717F809
:104A70000020019002906B46022200211348FDF7AE
:104A80009DFE08B1FCF70BF86B46802203210F480E
:104A9000FDF794FE08B1FCF702F829AA03210B48A0
:104AA000FDF755FD08B1FBF7FAFF11AB0122032119
:104AB0000648FDF769FD08B1FBF7F1FF0348FDF774
:104AC000D3FC2DB000BD00000074014004010020A3
:104AD00000B587B0002003900490059006900090E8
:104AE000019002904FF080401349086047204860D1
:104AF00000211148816040F2E731C160002101616D
:104B00008161FFF73FF808B1FBF7C9FF4FF4805010
:104B1000039003A90848FFF7CFF808B1FBF7BFFFE0
:104B200000200090029069460348FEF7E1FF08B1BB
:104B3000FBF7B5FF07B000BDE001002010B50D4840
:104B40000D4908604FF4E130486000210A48816057
:104B5000C16001610C21416100218161C16101627B
:104B60000020054948620846FFF723FA08B1FBF721
:104B700096FF10BD004400402C02002000BFFEE75D
:104B800000BFFEE77047704710B50D480088052844
:104B900013D2DFE800F00306090C0F0000F02AF83A
:104BA0000BE000F027F908E000F02EF805E000F037
:104BB0001DF902E000F006F800BF00BF10BD0000C4
:104BC000F802002010B500200849888141210848DA
:104BD000FDF73EFE82210648FDF73AFE0348808835
:104BE00010B901200149088010BD0000F802002022
:104BF0000401002010B500F071FC0120014908807B
:104C000010BD0000F802002010B52DED028B6948A0
:104C1000007820B101281CD002287DD16AE0002054
:104C20006549888181216548FDF712FE822163482C
:104C3000FDF70EFE4FF410606149C86008616148DD
:104C4000FFF776FC6048FFF773FC012059490870B4
:104C5000ACE05E480088401C5C490880084600883B
:104C6000642846DD002008805648FFF761FC56485E
:104C7000FFF75EFC564890ED000AF1EE040AB4EE30
:104C8000E00AF1EE10FA16D890ED000A5148D0ED86
:104C9000000A80EE201A9FED500A21EE000ABDEEB8
:104CA000C00A474880ED050A4FF410604449C860C7
:104CB000886108611AE0464890ED000A4548D0ED49
:104CC000000A80EE201A9FED440A21EE000ABDEE94
:104CD000C00A3B4880ED050A4FF42B403849C860B4
:104CE0004FF41060886147F6FF5008610220314997
:104CF00008705BE03048808950B93248FFF718FCF3
:104D00003148FFF715FC00F0D3FB01202A498881C8
:104D100032480088401C00E047E0304908803048B5
:104D20000088401C2E4908802548C0682B49098806
:104D300001EB810108442249C860084600692849FE
:104D4000098801EB810108441D490861C868FBF727
:104D50008AFA41EC180B9FED230B53EC102BFBF759
:104D600093FA1748C068B0F52B4F03DD4FF42B4082
:104D70001349C86012480069B0F5FC4F03DB47F6E1
:104D8000FF500F4908610E48C068B0F52B4F0BD19A
:104D90000B48006947F6FF51884205D103200649B8
:104DA000088000200349087000E000BF00BFBDEC90
:104DB000028B10BD2C000020F8020020040100200E
:104DC00010000020E4050020100600203000002024
:104DD000D0030020AC030020000034473200002044
:104DE000340000206666666666A6C94000B5FBF71B
:104DF000C5FB00BD00200D4988810D480088401C7E
:104E00000B49088008460088B0F5807F0DDD4FF41F
:104E1000807008800548808838B90020088002200A
:104E2000024908800020034908707047F8020020FA
:104E30002E0000202C00002010B5FDF783FD10BDD2
:104E400000B597B028210DA8FBF702FA142108A895
:104E5000FBF7FEF91C2101A8FBF7FAF901200D90E0
:104E600000040E9000200F90012011900220149059
:104E7000C10315914FF4E01116910DA8FEF708F942
:104E800008B1FBF70CFE0F200890022009900020CB
:104E90000A904FF480600B9000200C90022108A82B
:104EA000FDF71EFF08B1FBF7FAFD4FF480400190BB
:104EB0008010079001A8FDF70DFE08B1FBF7EFFD8C
:104EC00017B000BD0348006840F470000149086055
:104ED0007047000088ED00E010B50248FEF775FF4E
:104EE00010BD0000E001002010B502681E4B984282
:104EF00005D0B0F1804F02D01C4B984203D122F074
:104F000070024B681A43184B98420ED0B0F1804F94
:104F10000BD0164B984208D0154B984205D0154B34
:104F2000984202D0144B984203D122F44072CB68CD
:104F30001A4322F080034C6943EA040202608B6842
:104F4000C3620B688362084B984208D0084B9842B2
:104F500005D0084B984202D0074B984201D10B690B
:104F600003630123436110BD002C01400004004095
:104F700000400140004401400048014030B50C466B
:104F8000816821F47F4142EA03252543294381605A
:104F900030BD0A46816821F0700142F007031943D1
:104FA0008160704730B50B461446026A056A25F0E9
:104FB00001050562816921F0F00141EA041122F046
:104FC0000A021A438161026230BD30B50B461446B5
:104FD000056A25F0100505628169026A21F47041B5
:104FE00041EA043122F0A00242EA03128161026226
:104FF00030BD90F8241001F0010139B10168496811
:1050000021F40031826A11430268516090F8241043
:1050100001F00201022907D10168496821F48031B9
:10502000C26A11430268516090F8241001F0040133
:10503000042907D10168496821F48021026B1143DA
:105040000268516090F8241001F00801082907D186
:105050000168496821F40041426B114302685160C4
:1050600090F8241001F01001102907D10168896817
:1050700021F48051826B11430268916090F82410F2
:1050800001F02001202907D10168896821F400512D
:10509000C26B11430268916090F8241001F0400146
:1050A000402913D10168496821F48011026C114331
:1050B00002685160016CB1F5801F07D10168496831
:1050C00021F4C001426C11430268516090F8241031
:1050D00001F08001802907D10168496821F400218D
:1050E000826C114302685160704738B50446002055
:1050F000C4F88400FDF780F805462068006800F0D9
:105100000800082820D16FF07E402B4600224FF483
:1051100000110090204600F065F9A8B100BF00BF63
:10512000216851E8001F21F08000226842E8000158
:105130000029F5D100BF2020E06700BF002084F8DF
:10514000780000BF032038BD2068006800F004002C
:10515000042830D16FF07E402B4600224FF48001AE
:105160000090204600F03EF928B300BF00BF216840
:1051700051E8001F21F49070226842E800010029E4
:10518000F5D100BF00BF00BF2168083151E8001F02
:1051900021F001002168083141E80002002AF3D122
:1051A00000BF2020C4F8800000BF002084F87800F1
:1051B00000BF0320C7E72020E067C4F8800000207C
:1051C0002066606600BF84F8780000BF00BFBAE7C1
:1051D00000BF00BF026852E8002F22F490710368FC
:1051E00043E80012002AF5D100BF00BF00BF0268EB
:1051F000083252E8002F22F001010268083242E82A
:105200000013002BF3D100BF016E01290CD100BFA8
:1052100000BF026852E8002F22F01001036843E843
:105220000012002AF5D100BF2021C0F88010002113
:1052300001668166704700002DE9F04704464FF093
:10524000000A2169A068084361690843E16940EAEE
:105250000108206800685D49084040EA08002168AC
:1052600008602068406820F44050E16808432168E5
:105270004860D4F81880206A40EA080820688068EE
:1052800020F4306040EA08002168886000BF50497F
:105290002068884216D14F48006B00F0030030B1FF
:1052A000012808D0022808D0032808D101E00026F0
:1052B00007E0022605E0042603E0082601E01026A8
:1052C00000BF0CE044492068884201D1002606E076
:1052D00042492068884201D1002600E0102600BF24
:1052E000E069B0F5004F39D1092E17D2DFE806F09A
:1052F00005090D160F1616161300FDF74DFE05468F
:1053000010E0FDF75FFE05460CE0354D0AE0FDF7C5
:105310006FFE054606E04FF4004503E000254FF020
:10532000010A00BF00BF85B36800616800EB51004F
:10533000B0FBF1F7102F0ED3B7F5803F0BD24FF62D
:10534000F07007EA0009C7F3420049EA0009206843
:10535000C0F80C9034E04FF0010A31E0092E18D269
:10536000DFE806F005090D170F1717171400FDF7F2
:1053700013FE054611E0FDF725FE05460DE0184D2C
:105380000BE0FDF735FE054607E019E04FF4004558
:1053900003E000254FF0010A00BF00BF85B160683F
:1053A00005EB50006168B0FBF1F7102F06D3B7F59D
:1053B000803F03D2B8B22168C86001E04FF0010A13
:1053C0000020A066E0665046BDE8F087F369FFEF75
:1053D00000380140001002400044004000480040F6
:1053E00000127A002DE9F04104460D461746984612
:1053F000069E3CE0701CC8B3FCF7FEFEA0EB080064
:10540000B04200D816B90320BDE8F08120680068DA
:1054100000F0040050B32068C069C0F3C00078B148
:105420000820216808622046FFF7D2FE0820C4F851
:10543000840000BF002084F8780000BF0120E3E76B
:105440002068C069C0F3C02080B14FF400602168BB
:1054500008622046FFF7BCFE2020C4F8840000BF8D
:10546000002084F8780000BF0320CDE7FFE7206824
:10547000C0692840A84201D1012000E00020B842C4
:10548000B8D00020C0E700BFFEE7000010B5002143
:105490000548FBF707FB0A20FCF7C2FD1922034968
:1054A0000148FCF7EBF910BD480000202003002064
:1054B00010B503210848FDF7ABF9C0210648FDF7F8
:1054C000A7F94FF400310448FDF75AF94FF4801161
:1054D0000148FDF755F910BD0401002010B500206A
:1054E0001349888141211348FDF7B2F982211148FF
:1054F000FDF7AEF900200E4988809FED0F0A0F4896
:1055000080ED000A9FED0C0A80ED010A9FED0A0A6A
:1055100080ED020A4FF4106008494861C860886154
:1055200008610748FFF704F80648FFF701F810BDC7
:10553000F8020020040100200000000010000020FC
:10554000E40500201006002010B50D48FEF772FBA0
:105550000A20FCF765FDFFF799FF00240CE004EB3F
:105560004401084A02EBC100DFED070A9FED070A7C
:1055700000F09AF8601CC4B2052CF0DB10BD0000EE
:10558000E0010020F00300200060EA46005043489C
:1055900002480068C0F30220704700000CED00E0F4
:1055A00010B5002804DB0A07130E054A135406E061
:1055B0000A07140E034A00F00F031B1FD45410BD3A
:1055C00000E400E018ED00E002E008C8121F08C186
:1055D000002AFAD170477047002001E001C1121F74
:1055E000002AFBD1704700002A4890ED020A2A48A1
:1055F00080ED010A274890ED010A274880ED000A56
:1056000090ED000AD0ED010A20EE200A80ED020A9A
:10561000204890ED020AD0ED040A30EE600A1F48DF
:1056200080ED010A1B4890ED010A1C4880ED000A3C
:1056300090ED000AD0ED010A20EE200A80ED020A6A
:10564000144890ED040A164880ED010A114890EDC7
:10565000010A134880ED000A90ED000AD0ED010A1E
:1056600020EE200A80ED020A0A4890ED030A0D4858
:1056700080ED010A074890ED000A0A4880ED000A13
:1056800090ED000AD0ED010A20EE200A80ED020A1A
:10569000704700000C030020AC030020B80300207A
:1056A000C4030020D0030020C0ED020A80ED030AED
:1056B000D0ED021AF5EEC01AF1EE10FA06D9D0EDCF
:1056C000031AF5EEC01AF1EE10FA08D8F7EE001A38
:1056D000C0ED041ADFED161AC0ED051A7047D0EDC3
:1056E000021A9FED142A61EE821AB7EE002A82EEAA
:1056F000211A90ED032AF7EE001A41EE021AB7EED6
:10570000002AC2EE212AC0ED042AD0ED041AB7EE19
:10571000002A72EE611AC0ED051ADFED051AC0ED20
:10572000001ADFED031AC0ED011A00BFD6E7000032
:1057300000000000DB0FC940FDF710F9FFF780FB08
:10574000FFF77CF8FFF758F8FEF7B6FFFFF7A2F86F
:10575000FFF7BEF9FFF7F2F9FFF728F8FFF7F4FEBD
:1057600000BFFEE702030405060708090A0B0C0D3B
:105770000E0F10100102030405060708090A0B0C9E
:105780000D0E0F10000000000000000001020304D5
:10579000060708090000000001020304BC570008C6
:1057A0000000002048000000C85500080458000808
:1057B00048000020F8090000D8550008000000004B
:1057C000100000000100000000127A00000000003C
:1057D00000000000000000000009000000000000C0
:1057E00000000000000000000000000000000000B9
:1057F0000000000000000000000000000000F04178
:0458000000000000A4
:040000050800018965
:00000001FF
