:020000040800F2
:10000000600A00209D010008115A0008775200087C
:100010000D5A0008D90E0008D7660008000000003D
:10002000000000000000000000000000175A000857
:100030006511000800000000155A0008515E000814
:10004000B7010008B7010008B7010008B7010008B0
:10005000B7010008B7010008B7010008B7010008A0
:10006000B7010008B7010008B701000865100008D3
:10007000B7010008B7010008B7010008B701000880
:10008000B7010008751000084D070008B701000807
:10009000210F0008B7010008B7010008B7010008E8
:1000A000B7010008B7010008B7010008B701000850
:1000B000F15E0008B701000800000000B701000869
:1000C000B70100080000000000000000B7010008B0
:1000D00000000000B7010008B7010008B7010008E0
:1000E000B7010008B7010008000000000000000090
:1000F0000000000000000000000000000000000000
:1001000000000000000000000000000000000000EF
:100110000000000000000000B7010008B70100085F
:1001200000000000000000000000000000000000CF
:1001300000000000000000000000000000000000BF
:10014000B7010008B701000800000000B70100086F
:10015000B7010008B7010008B7010008B70100089F
:10016000B7010008B701000800000000000000000F
:10017000000000000000000000000000000000007F
:1001800000000000B7010008DFF80CD000F05CFAB6
:1001900000480047F9710008600A002006488047BF
:1001A00006480047FEE7FEE7FEE7FEE7FEE7FEE75C
:1001B000FEE7FEE7FEE7FEE7DD5E000889010008D6
:1001C0002DE9F05F0546002092469B46884606468C
:1001D000814640241BE0284641464746224600F01F
:1001E00020F853465A46C01A914110D3114618467A
:1001F000224600F061F82D1A67EB01084F462246AF
:100200000120002100F058F817EB00094E41201E94
:10021000A4F10104DFDC484631462A464346BDE8E6
:10022000F09F202A04DB203A21FA02F000217047D7
:1002300021FA02F3D040C2F120029140084319464E
:100240007047D2B201E000F8012B491EFBD2704783
:100250000022F6E710B513460A4604461946FFF792
:10026000F0FF204610BD00F0004230F000400AD000
:10027000C10D01F56071C0F3160042EA0151C208D8
:1002800040071143704700200146704730B50B46C8
:10029000014600202022012409E021FA02F59D42B6
:1002A00005D303FA02F5491B04FA02F52844151E8A
:1002B000A2F10102F1DC30BD202A04DB203A00FA71
:1002C00002F1002070479140C2F1200320FA03F3AD
:1002D0001943904070472DE9FE4F804681EA0300A4
:1002E000C00F0C46009021F0004123F00045B8EB10
:1002F0000200A94105D24046214690461C460B46C5
:10030000024623F00040104347D0270DC7F30A00F0
:10031000C3F30A510290401A019040286BDAC3F3EC
:10032000130040F4801B0098924620B10023D2EBCA
:10033000030A63EB0B0B01985946C0F1400250468B
:10034000FFF7BAFF06460D4650465946019A00F09F
:100350008DF910EB08006141002487EA115284EA0C
:10036000E7731A4340D0009A62B3019A012A4FEA18
:10037000075215DC001B61EB02014FF0004202EA5C
:100380000752CDE90042001C41F5801132462B4650
:1003900000F08DF903B0BDE8F08F40462146F9E743
:1003A000001B61EB0201001C41F5801300185B414A
:1003B0002018A2F5001747EB030140EAD570B619E3
:1003C0006D4111E06D084FEA360645EAC0754FEA07
:1003D0000752001B61EB0201001C41F58011490826
:1003E0004FEA30000019514132462B4603B0BDE8B8
:1003F000F04F00F04DB90098012240000023D0EBEF
:10040000020263EBE073009821464FEAE074B8EB18
:10041000000061EB0401E9E783F000435BE781F052
:10042000004158E72DE9FE4F81EA030404F000443F
:1004300021F0004100944FF0000B23F0004350EAFC
:1004400001045ED052EA03045BD0C3F30A54C1F343
:100450000A552C44A4F2F3340194A0FB0254C1F3D6
:10046000130141F48011C3F3130343F4801301FB20
:10047000024400FB034E840A970A44EA815447EA87
:100480008357A4FB076802958D0A05FB07854FEA91
:10049000932C04FB0C542705029D4FEA065847EAAB
:1004A0001637B5EB08056EEB070C870E920E47EA80
:1004B000811742EA8312A7FB0201B6EB0B0164EB42
:1004C00000042B0D43EA0C335E1844EB1C50DA4653
:1004D0005146E7FB0201C5F313044FEA0B3343EA2D
:1004E00014534FEA0432019C43EA0603A4F10C04BE
:1004F0000294009CCDE900B400F0D9F803B0BDE847
:10050000F08F00200146F9E72DE9F04D81EA030460
:1005100004F0004B21F0004514464FF0000A23F090
:10052000004150EA050220D054EA01021DD0C5F373
:100530000A570246C5F31303C1F31300C1F30A5669
:1005400040F4801543F48013A7EB0608101BD64631
:1005500008F2FD3873EB050002D308F1010801E051
:1005600092185B41B8F1000F03DA00200146BDE8A4
:10057000F08D00204FF48011064684460EE0171BD4
:1005800073EB050705D3121B63EB050306434CEA27
:10059000010C49084FEA300092185B4150EA01070C
:1005A000EDD152EA030012D082EA040083EA050189
:1005B000084305D0101BAB4106D20122002306E000
:1005C00000224FF0004302E06FF0010253101AEBDB
:1005D00006004CEB085110EB0A0041EB0B01BDE8A3
:1005E000F04D00F055B8C1F30A52C1F3130140F2C7
:1005F000FF3341F480119A4202DA0020014670472D
:1006000040F233439A42A2F2334202DC5242FFF7F5
:1006100008BEFFF751BE000030B5041E71F10004A2
:1006200004DB4FF00044404264EB0101141E73F1FF
:10063000000405DB1C464FF00043524263EB040309
:10064000994208BF904230BD064C074D06E0E06875
:1006500040F0010394E8070098471034AC42F6D309
:10066000FFF796FD5C7200087C720008202A06DB0A
:10067000CB17203A41FA02F043EAE07306E041FA70
:1006800002F3D040C2F1200291400843194670475E
:1006900010B5141E73F1000408DA401C41F100018A
:1006A00092185B411A4301D120F0010010BD2DE9E1
:1006B000F04D92469B4611B1B1FA81F202E0B0FAD8
:1006C00080F220329046FFF7F7FD04460F4640EADD
:1006D0000A0041EA0B0153465A46084313D011461B
:1006E00053EA010019D0C8F140025046FFF799FDC6
:1006F00005460E46504659464246FFF7DDFD084383
:1007000005D0012004E020463946BDE8F08D0020E8
:10071000054346EAE0762C4337430A986305E40A2A
:10072000A0EB08000022FD0A44EA47540A3002D533
:1007300000200146E9E7010510196941DDE9084596
:1007400000196941BDE8F04DA2E7000010B502486C
:1007500001F0D2F810BD00008800002070B50546F9
:100760006C6A206C00F05000D0B9206C40F400702E
:1007700020642068C06800F4406068B9607E58B9A1
:10078000206C20F480702064206C00F4805018B934
:10079000206C40F001002064204600F0F9FF03E0E7
:1007A000A06B016B2846884770BD70B505466C6A22
:1007B000206C40F040002064606C40F004006064F5
:1007C000204601F098F870BD70B50446656A284669
:1007D00001F090F870BD70B504460025206880686F
:1007E00000F00300012806D12068006800F0010035
:1007F00008B1012000E0002000283BD0206880687C
:1008000000F00D00012800D100E0002050B100BF31
:100810002068806840F00200216888600320216819
:10082000086009E0206C40F010002064606C40F02B
:1008300001006064012070BD02F0A0FA054613E0DB
:1008400002F09CFA401B02280ED92068806800F054
:10085000010048B1206C40F010002064606C40F052
:10086000010060640120E6E72068806800F0010074
:100870000028E5D10020DEE770B504460025206899
:10088000806800F00300012806D12068006800F0AD
:10089000010008B1012000E0002080BB20688068D2
:1008A0001B49084008B9012000E0002048B9206C2D
:1008B00040F010002064606C40F001006064012092
:1008C00070BD2068806840F001002168886002F0F7
:1008D00055FA054614E002F051FA401B02280FD9E0
:1008E0002068006800F0010050B9206C40F0100052
:1008F0002064606C40F0010060640120E0E705E0E6
:100900002068006800F001000028E4D00020D7E74C
:100910003F000080002029498879897921B1012987
:1009200022D002293CD12DE0B3EE0A0A244981ED00
:10093000000AB3EE0E0A81ED020A224991ED000A87
:100940002149D1ED000A9FED211A60EE810AB4EE33
:10095000E00AF1EE10FA03D20121184A917102E087
:100960000221164A91711BE0194991ED000ADFED51
:10097000190AB4EEE00AF1EE10FA02DB02210F4A86
:1009800091710DE0144991ED000ADFED140AB4EE07
:10099000E00AF1EE10FA02D80121084A917100BF75
:1009A00000BF06498979814203D00121034A91722F
:1009B00002E00021014A91727047000038030020D4
:1009C0001000002020040020FC030020CDCC4C3F70
:1009D00064000020E17A543F68000020CDCC4C3DFB
:1009E00010B5FE48C07A28B1FD4804F067FCFD4808
:1009F00004F064FCF948C07920B1012812D0022823
:100A00000FD117E1F84890ED080AB5EEC00AF1EEF3
:100A100010FA03DB0120F149C87102E00220EF491E
:100A2000C8713DE2ED48C07A50B3DFEDF03A9FED7A
:100A3000F03ADFEDF02A9FEDEE2AEF48D0ED001AF4
:100A40009FEDEE1ADFEDEE0A9FEDEE0AE44804F0AA
:100A5000D1FCDFEDE63A9FEDE63ADFEDE62A9FEDC9
:100A6000E42AE548D0ED001A9FEDE71ADFEDE30A2E
:100A70009FEDE50ADB4804F0BDFC0020D749C872B1
:100A8000E24890ED021AF0EE410AE14890ED021AB8
:100A9000B0EE410AD44804F029FCDE4890ED011A7A
:100AA000F0EE410AD04890ED081AB0EE410ACC4869
:100AB00004F01CFCD84890ED001AF0EE410AD4482E
:100AC00090ED001AB0EE410AC64804F00FFCC4488D
:100AD00090ED080AC348D0ED080AB4EEE00AF1EE42
:100AE00010FA08DD90ED080AC34880ED000A0120E5
:100AF000BA49087208E0BA4890ED080ABE4880ED8D
:100B0000000A0020B5490872BB4890ED000ADFEDED
:100B1000C30AB4EEE00AF1EE10FA13DB9FEDBF0A50
:100B2000BF4880ED000AB44890ED000ADFEDBB0A33
:100B300030EE600ADFEDBB0A30EE200ABA4880EDE5
:100B4000000A13E0AC4890ED000ADFEDB40AB4EE01
:100B5000E00AF1EE10FA09D290ED000AB04880EDFB
:100B6000000A9FEDB00AB04880ED000AAC4890ED55
:100B7000000ADFEDAE0A20EE200ABDEEC00AA4484E
:100B800080ED070AA84890ED000ADFEDA80A20EEE4
:100B9000200ABDEEC00A9E4880ED080A9E4890EDEE
:100BA000000ADFEDA30A80EE201A9FEDA00A61EE95
:100BB000000A974890ED070AB8EEC00AF4EEC00AA2
:100BC000F1EE10FA0FDD944890ED000ADFED980A7F
:100BD00080EE201A9FED950A21EE000ABDEEC00AB4
:100BE0008B4880ED070A8A48C0698949496988426B
:100BF00003DD874840698649C8618548006A8449A1
:100C00008969884203DD8248806981490862804899
:100C1000C069B0F5106F03DA4FF410607C49C86109
:100C20007B48006AB0F5106F03DA4FF41060784922
:100C3000086235E16948C07A50B3DFED6C3A9FED48
:100C40006C3ADFED6C2A9FED6A2A6B48D0ED001AF2
:100C50009FED6A1ADFED6A0A9FED6A0A604804F0A8
:100C6000C9FBDFED623A9FED623ADFED622A9FED4C
:100C7000602A6148D0ED001A9FED631ADFED6D0A1E
:100C80009FED610A574804F0B5FB00205349C87234
:100C90005E4890ED021AF0EE410A5D4890ED021AAE
:100CA000B0EE410A504804F021FB5A4890ED011A79
:100CB000F0EE410A4C4890ED081AB0EE410A48485F
:100CC00004F014FB514890ED000AF0EE400AB3EE38
:100CD0000B0A444804F00AFB414890ED080A4148D9
:100CE000D0ED080AB4EEE00AF1EE10FA09DD3C4856
:100CF00090ED080A404880ED000A0020374908724C
:100D000008E0384890ED080A3B4880ED000A0120D1
:100D100032490872384890ED000ADFED400AB4EE1F
:100D2000E00AF1EE10FA13DB9FED3C0A3C4880ED3F
:100D3000000A314890ED000ADFED380A30EE600A13
:100D4000DFED380A30EE200A374880ED000A13E064
:100D5000294890ED000ADFED310AB4EEE00AF1EE29
:100D600010FA09D290ED000A2D4880ED000A9FED9F
:100D70002D0A2D4880ED000A294890ED000ADFED8C
:100D80002B0A20EE200ABDEEC00A214880ED070A9A
:100D9000254890ED000ADFED250A20EE200ABDEE81
:100DA000C00A1B4880ED080A1B4890ED000ADFEDE1
:100DB000200A80EE201A9FED1D0A61EE000A1448F9
:100DC00090ED070AB8EEC00AF4EEC00AF1EE10FA90
:100DD0003FDD1148D0ED000A2EE00000380300206E
:100DE00080050020AC050020D8050020CDCCCC3DEE
:100DF0009A99993F9A9999BF5C0000208FC2F53C5F
:100E00006F12033C6F12833A00000000FC030020C5
:100E1000100000201404002020040020E17A543F38
:100E200064000020CDCC4C3D680000200000344719
:100E3000000004428FC2F5BC1FED031A80EE810A48
:100E40005FED060A20EE200ABDEEC00A1F4880EDC5
:100E5000070A1E48C0691D494969884203DD1B48CD
:100E600040691A49C8611948006A18498969884265
:100E700003DD16488069154908621448C069B0F559
:100E8000106F03DA4FF410601049C8610F48006A10
:100E9000B0F5106F03DA4FF410600C49086200BF20
:100EA00000BF0B48407A20B94FF410600749C86171
:100EB00008620648C16907480068C0F89C100348EA
:100EC000016A04480068C0F81C1210BD1000002020
:100ED000380300204401002000BFFEE710B58AB0AF
:100EE0000446002005900690012007900020009005
:100EF0000190029003900490012008900E20099028
:100F00006946204601F096F908B100F030F9022157
:100F1000204601F0D5F8204601F011FD0AB010BDC1
:100F200010B5024801F0D6FA10BD00001C010020E7
:100F300070B588B005460E461446234601AA3146D0
:100F4000284601F0FDF901282CD040F2FF610198FC
:100F5000884227D1002005E01349095C134A115447
:100F6000411CC8B20828F7DB0020114908800F484F
:100F70000078104908730D484078083800EE100AD0
:100F8000B8EEC00A0C4880ED020A084880780A4989
:100F900008740648C07800EE100AB8EE400A084609
:100FA00080ED030A08B070BD700000207A000020B8
:100FB0007800002038030020100000202DE9F043C5
:100FC00089B081460E46174621A103C9CDE900012B
:100FD000039600200690059007978DF82000804624
:100FE000002400251C4890ED000ADFED1C0A20EECD
:100FF000200ABCEEC00A10EE100A1FFA80F84FEA71
:1010000028208DF8000008F0FF008DF80100201264
:101010008DF802008DF8034028128DF804008DF839
:1010200005500F48007B8DF80600FF208DF8070063
:1010300002AB6A4603A9484601F057F80298012816
:1010400003D00298022800D000BF09B0BDE8F083A9
:101050000100010001000200200400200000C8423D
:101060003803002010B5024801F09FFC10BD0000BD
:10107000D800002010B5024801F097FC10BD000018
:10108000F4020020054A0168891A1422B1FBF2F12A
:101090008900016401490839C163704708000240B2
:1010A00030B590F840500124AC40C56B6C600468CA
:1010B00063604468102C04D10468A2600468E16095
:1010C00003E00468A1600468E26030BD10B500244C
:1010D0002248C479C07920B1012812D0022834D125
:1010E00021E01F4890ED080AB5EEC00AF1EE10FAB3
:1010F00003DB01201949C87102E002201749C871B9
:1011000023E0022004F0B0F9012004F091F9144822
:1011100090ED080AB5EEC00AF1EE10FA02D20220F4
:101120000E49C87111E0022004F082F9012004F098
:101130009BF90B4890ED080AB5EEC00AF1EE10FAE3
:1011400002DB01200549C87100BF00BF0348C07918
:10115000A04202D001200149C87210BD380300200E
:10116000D8050020704710B504F056FC10BD72B6CB
:1011700000BFFEE72DE9F04104460E46002700BF00
:1011800094F83C00012802D10220BDE8F081012042
:1011900084F83C0000BF2046FFF71DFB074697BBC5
:1011A000012020642068806820F0804021688860E9
:1011B000012E05D12068806840F080402168886059
:1011C0002068806840F000402168886001F0D6FD0A
:1011D000054619E001F0D2FD401B0A2814D9206809
:1011E000806800F00040B0F1004F0DD1206C20F07D
:1011F000020040F01000206400BF002084F83C0092
:1012000000BF0120C1E70CE02068806800F00040CA
:10121000B0F1004FDED0206C20F0020040F0010061
:10122000206400BF002084F83C0000BF3846ACE7D3
:10123000704770477047704770B594B002460B46D0
:101240000024186800B100BF1068B0F1A04F02D1AF
:101250004648009002E04FF0A0400090009810B97E
:10126000012014B070BD00BF92F83C00012801D1EC
:101270000220F6E7012082F83C0000BF1068806879
:10128000C0F38000002864D100988068C0F380001B
:1012900000285ED13649186890B392F830005D6836
:1012A00045EA40308D6825F4604528438860106821
:1012B000806800F00300012806D11068006800F083
:1012C000010008B1012000E00020002846D100986C
:1012D000806800F00300012806D10098006800F043
:1012E000010008B1012000E0002088BB9D6818685B
:1012F00028438D6840F61F76B543284388602DE06B
:10130000FFE7886820F4604088601068806800F01B
:101310000300012806D11068006800F0010008B140
:10132000012000E0002098B90098806800F00300D8
:10133000012806D10098006800F0010008B10120E2
:1013400000E0002020B9886840F61F75A843886037
:1013500004E0106C40F020001064012400BF002065
:1013600082F83C0000BF20467BE7000000010050EF
:1013700000030050F0B595B0024600250020009013
:10138000C868012800D000E000BF00BF92F83C0010
:10139000012802D1022015B0F0BD012082F83C00E6
:1013A00000BF10688068C0F38000002879D14868C9
:1013B000052812D21068006B0E7906EB46067700FE
:1013C0001F26BE40B0430F7907EB47077F000E682A
:1013D000BE4030431668306343E048680A2814D2A0
:1013E0001068406B0E79761F06EB460677001F26C5
:1013F000BE40B0430F797F1F07EB47077F000E68A1
:10140000BE403043166870632BE048680F2814D242
:101410001068806B0E790A3E06EB460677001F26A1
:10142000BE40B0430F790A3F07EB47077F000E68C5
:10143000BE4030431668B06313E01068C06B0E798D
:101440000F3E06EB460677001F26BE40B0430F79DD
:101450000F3F07EB47077F000E68BE40304316681A
:10146000F0631068806800F00C0008B1012000E013
:101470000020002870D108680A2813D310688069FA
:101480000E780A3E06EB46070726BE40B0430F78AB
:101490000A3F07EB47078E68BE4030431668B061CD
:1014A00010E05FE1106840690E7806EB46070726FA
:1014B000BE40B0430F7807EB47078E68BE4030430D
:1014C0001668706148691668F668C6F3C10676004A
:1014D00000FA06F40869012806D0022812D0032871
:1014E0001ED0042839D129E01068006EA34E304088
:1014F0000E784FF0004747EA866626433043166869
:10150000306663E01068406E9C4E30400E784FF0BD
:10151000004747EA8666264330431668706655E002
:101520001068806E954E30400E784FF0004747EAC5
:101530008666264330431668B06647E01068C06E82
:101540008E4E30400E784FF0004747EA86662643BD
:1015500030431668F06639E039E01068006E00F03C
:10156000F8400E78B0EB866F05D11068006E20F061
:101570000040166830661068406E00F0F8400E7843
:10158000B0EB866F05D11068406E20F00040166801
:1015900070661068806E00F0F8400E78B0EB866FD1
:1015A00005D11068806E20F000401668B0661068A3
:1015B000C06E00F0F8400E78B0EB866F05D1106871
:1015C000C06E20F000401668F06600BF00BF1068D3
:1015D000806800F00300012806D11068006800F060
:1015E000010008B1012000E0002000287ED1C86879
:1015F00001280AD01068D0F8B0000F780126BE404C
:10160000B0431668C6F8B00032E01068D0F8B000F9
:101610000F780126BE4030431668C6F8B00008684F
:101620000A2813D3106886690878093800EB400748
:101630000720B84026EA00000E78093E06EB460671
:101640008F68B74038431668B06111E01068406990
:101650000E78761C06EB46070726BE40B0430F788F
:101660007F1C07EB47078E68BE40304316687061E9
:10167000434B0868102803D1986800F4000070B14B
:101680000868112803D1986800F0807038B10868A4
:1016900012286CD1986800F48000002867D1106887
:1016A000B0F1A04F02D13748019002E04FF0A040C6
:1016B00001901068806800F00300012806D11068CE
:1016C000006800F0010008B1012000E0002070BBBC
:1016D000019880B10198806800F00300012808D1CA
:1016E0000198006800F0010018B100E033E001202B
:1016F00000E00020D8B90868102819D11068B0F1AE
:10170000A04F15D1986840F4000098601E4800680A
:101710001E4EB0FBF6F000EB80004000009002E0AF
:101720000098401E009000980028F9D11FE013E0B7
:101730000868112808D11068B0F1A04F04D198684A
:1017400040F08070986012E0086812280FD1986805
:1017500040F4800098600AE0106C40F020001064B3
:10176000012504E0106C40F020001064012500BF4A
:10177000002082F83C0000BF28460CE600F0FF8302
:1017800000030050000100500C00002040420F00F8
:1017900010B5024600202CE0002118E001EB810387
:1017A000464C04EB830353F8203000EE103AB8EEB9
:1017B000400A434B03EB8003D3ED000A30EE200ACE
:1017C0003F4B03EB800383ED000A4B1CD9B2052984
:1017D000E4DB3B4901EB800191ED000AF1EE040AE4
:1017E00080EE201A364901EB800181ED001A411C80
:1017F000C8B20528D0DB00200DE0314901EB8001A3
:1018000091ED000ABCEEC00A10EE101A2D4B43F801
:101810002010411CC8B20528EFDB2948D0ED000A92
:101820009FED291A9FED290A00EE810A284880EDD4
:10183000010A2348D0ED010A9FED261A9FED260AE2
:1018400000EE810A224880ED000A1D48D0ED020A10
:101850009FED221A9FED220A00EE810A1C4880EDBE
:10186000040A1748D0ED030A9FED1E1A9FED1E0AC9
:1018700010EE810A164880ED030A1148D0ED040AE3
:101880009FED181A9FED160A10EE810A104880EDA0
:10189000020A002008E09FED150A094901EB8001CA
:1018A00081ED000A411CC8B20528F4DB05F020FCDC
:1018B0000F480088401C0E49088010BD70030020AE
:1018C000D4030020E8030020143F463C0BB5263D1E
:1018D00048030020A69B443C67D5E73C9FABADBBCB
:1018E0002DB22C419FABAD3BFA7E2D410000000094
:1018F0006C000020704770472DE9F04704464FF018
:101900000009C846C246206805682068466805F098
:101910000400042803D106F00400042807D005F0D1
:10192000080008285AD106F00800082856D1206C73
:1019300000F0100018B9206C40F400702064B34827
:10194000006800F01F0078B1B048006800F01F0088
:10195000052809D0AD48006800F01F00092803D011
:101960002068B0F1A04F03D12068D0F80C8003E0CC
:101970004FF0A040D0F80C802068C06800F44060B0
:1019800030BB08F4005018BB05F0080008281FD130
:1019900020688068C0F3800090B92068406820F01B
:1019A0000C0021684860206C20F480702064206C5A
:1019B00000F4805060B9206C40F00100206407E022
:1019C000206C40F010002064606C40F00100606406
:1019D0002046FFF7DDFE0C202168086005F020009E
:1019E000202803D106F02000202807D005F0400071
:1019F000402868D106F0400040287DD1206C40F49A
:101A0000005020648148006800F01F0078B17F48D2
:101A1000006800F01F00052809D07C48006800F02D
:101A20001F00092803D02068B0F1A04F03D120681F
:101A3000D0F80C8003E04FF0A040D0F80C80206874
:101A4000C06C00F0C000E8BB08F0007038B120683E
:101A5000C06800F44060A8BB08F4005090BB05F0DB
:101A60004000402842D16948006800F01F0078B16A
:101A70006648006800F01F00062809D06348006827
:101A800000F01F00072803D02068B0F1A04F03D159
:101A90002068D0F80CA003E04FF0A040D0F80CA0D4
:101AA0000AF4001070B920688068C0F3C000A8B9BB
:101AB0002068406820F0600021684860206C20F4B5
:101AC000805001E012E017E02064206C00F4807088
:101AD00060B9206C40F00100206407E0206C40F009
:101AE00010002064606C40F0010060642046FFF745
:101AF0009FFB60202168086005F0800080280DD1E0
:101B000006F08000802809D1206C40F480302064E9
:101B1000204600F0A7F980202168086005F4807055
:101B2000B0F5807F0FD106F48070B0F5807F0AD1C8
:101B3000206C40F4003020642046FFF77BFB4FF41C
:101B400080702168086005F40070B0F5007F0FD147
:101B500006F40070B0F5007F0AD1206C40F48020BC
:101B600020642046FFF767FB4FF40070216808608F
:101B700005F0100010282DD106F01000102829D1F2
:101B8000606B012801D1814613E0204F083FB868FF
:101B900000F01F0038B92068C06800F0010040B1B3
:101BA0004FF0010905E0B86800F4404008B14FF07B
:101BB0000109B9F1010F0AD1206C40F48060206462
:101BC000606C40F0020060642046FFF794FE102035
:101BD0002168086005F48060B0F5806F13D106F4C9
:101BE0008060B0F5806F0ED1206C40F4804020649E
:101BF000606C40F0080060644FF480602168086009
:101C00002046FFF716FBBDE8F087000008030050F0
:101C1000F0B595B00446002600250020009014B9C8
:101C2000012015B0F0BD206918B12020005D00B181
:101C300000BF206C00F01000002853D1206C98BB2E
:101C4000002060640021E164A06484F83C00204628
:101C500000F00AF92068806800F0805020BB204620
:101C6000FEF7B9FD0646206C00F01000E0B9DEB9C1
:101C7000206C20F4885040F00200206420688068C6
:101C800020F04050216888602068806840F08050D3
:101C9000216888606E4800686E49B0FBF1F000EB87
:101CA00080004000009003E005E00098401E009096
:101CB00000980028F9D12068806800F0805030B189
:101CC0002068806800F00050B0F1005F0AD1206CFD
:101CD00020F0020040F010002064606C40F0010031
:101CE00060640126206C00F01000002873D1002EE3
:101CF000FCD120688068C0F380000028F6D1206CF9
:101D000020F4807040F002002064534F2068B0F14E
:101D1000A04F02D15148019002E04FF0A040019045
:101D20002068806800F00300012806D12068006860
:101D300000F0010008B1012000E00020B0B90198D6
:101D400070B10198806800F00300012806D1019865
:101D5000006800F0010008B1012000E0002028B96F
:101D6000B86820F4403061680843B860606B0128AF
:101D700002D04FF4805100E00021607E41EA403003
:101D8000E1680843A168084305432020005D01285D
:101D900013D1607E38B9A08C401E4FF4803141EAE7
:101DA0004040054309E0206C20F0020040F0200094
:101DB0002064606C40F001006064A06A012803D0D8
:101DC000D4E90A01084305432068806800F00C004C
:101DD00010B1012001E032E0002068B92068C0683D
:101DE00044F2020188432168C860207E810394F890
:101DF000300041EA400005432068C06818490840A7
:101E000028432168C8602069012809D12068006B37
:101E100020F00F00E169491E08432168086305E0CE
:101E20002068006B20F00F002168086300206064C8
:101E3000206C20F0020040F00100206406E0206CDD
:101E400020F0020040F01000206401263046E8E651
:101E50000C00002040420F00000300500001005021
:101E600007C0F0FF7047000010B586B0044614218B
:101E700001A8FEF7EDF92068B0F1A04F61D100BFD5
:101E80003148406940F080502F4948610846406918
:101E900000F08050009000BF00BF00BF08464069BE
:101EA00040F4003048610846406900F4003000907A
:101EB00000BF00BF00BF0846406940F48020486171
:101EC0000846406900F48020009000BF00BF0C204D
:101ED0000190032002900020039001A94FF0904050
:101EE00000F064FE42F20300019003200290002003
:101EF000039001A9154800F059FE154815490860DE
:101F0000002048600021134881608021C160890061
:101F1000016189004161202181610021C16100F0DE
:101F2000B7FD08B1FFF723F900BF0A48A063446278
:101F300000BF00221146122001F03CFB122001F0EC
:101F400029FB06B010BD000000100240000400484C
:101F500008000240D80000202DE9F04104460D465B
:101F60001646002720688068C0F3800000287DD1D5
:101F700000BF94F83C00012802D10220BDE8F081A6
:101F8000012084F83C0000BF4848006800F01F00B2
:101F900000286CD12046FEF76FFC0746002F76D153
:101FA000206C40F60161884340F4807020643F4813
:101FB000006800F01F0018B12068B0F1A04F0FD1E9
:101FC000206C20F4801020642068C06800F000704D
:101FD00000B3206C20F4005040F48050206419E0DD
:101FE000206C40F4801020642068B0F1A04F03D032
:101FF0002F492068884205D14FF0A040C06800F00A
:10200000007000E0002028B1206C20F4005040F463
:1020100080502064206C00F48050B0F5805F04D1C3
:10202000606C20F00600606401E00020606400BF86
:10203000002084F83C0000BF1E48A16B88621E4847
:10204000A16BC8621D48A16B08631C202168086051
:102050002068406840F01000216848602068C0682F
:1020600040F001002168C860226802E01AE013E035
:102070000DE002F1400133462A46A06B00F033FD2B
:102080002068806840F00400216888600BE000BF91
:10209000002084F83C0006E0012700BF002084F8FF
:1020A0003C0000E00227384668E7000008030050C3
:1020B000000100505D070008C9070008AB070008D1
:1020C00010B5024692F82030012B01D0022B06D128
:1020D00010684069084314686061002010BD506AB0
:1020E00040F4802050620120F8E7F0B504460D4628
:1020F0001E4694F8207020688368A86800B900E044
:1021000000BF012F01D0022F7DD103F0806030B9D4
:1021100003F0006018B903F0805000287ED0C3F3AC
:102120000161012088403060A86860B9B5F800C03E
:10213000E86840EA4C5C206800F5C07000EB0110D4
:10214000C0F800C00FE0D5E901C040EACC00D5F8E6
:102150000CC040EA0C00D4F800C00CF5C07C0CEBBD
:10216000011CCCF80000D5F810C0206800F5C07044
:1021700000EB0110C0F804C0287D01280ED12068B2
:1021800000F5C07000EB0110406840F4807C2068CE
:1021900000F5C07000EB0110C0F804C0D079000653
:1021A00092F806C040EA0C4092F805C040EA0C20C4
:1021B00092F804C040EA0C00D4F800C00CF5C07CD2
:1021C0000CEB011CCCF80C00D078000692F802C091
:1021D00040EA0C4092F801C040EA0C2092F800C09E
:1021E00040EA0C00D4F800C00CF5C07C0CEB011CDC
:1021F000CCF80800206800F5C07000EB0110006802
:1022000040F0010C01E00FE008E0206800F5C0702C
:1022100000EB0110C0F800C00020F0BD606A40F47F
:10222000001060620120F8E7606A40F4802060627C
:102230000120F2E7F0B504460A46216894F82050E0
:10224000012D01D0022D74D1D1F8000240F001001F
:10225000C1F80002107D00F01F06012000FA06F30D
:10226000D1F81C029843C1F81C02D069C8B9D1F852
:102270000C029843C1F80C02908880B2968940EA1B
:10228000064601F51070576940F83760108880B233
:10229000168940EA064601F51070576900EBC70041
:1022A0004660D069012819D1D1F80C021843C1F851
:1022B0000C02908880B2168840EA064601F510703C
:1022C000576940F83760908980B2168940EA06461F
:1022D00001F51070576900EBC7004660906928B996
:1022E000D1F804029843C1F8040204E0D1F80402D2
:1022F0001843C1F80402106928B9D1F814029843B0
:10230000C1F8140204E0D1F814021843C1F8140211
:10231000106A012804D1D1F81C021843C1F81C022C
:10232000D1F8000220F00100C1F800020020F0BD49
:10233000FFE7606A40F4802060620120F7E77047A1
:1023400070B5044694F82050012D01D0022D7DD1A6
:1023500051B92068C06800F0030080B9606A40F499
:1023600000106062012070BD2068006900F0030069
:1023700028B9606A40F4001060620120F3E7206829
:1023800000F5D87000EB0110006800F004009060C8
:10239000906840B9206800F5D87000EB0110006823
:1023A000400D106007E0206800F5D87000EB0110C8
:1023B0000068C0085060206800F5D87000EB01107C
:1023C000006800F00200D060206800F5D87000EBD3
:1023D0000110406800F00F00082802D308201061A7
:1023E00008E0206800F5D87000EB0110406800F0AC
:1023F0000F001061206800F5D87000EB01104068F4
:1024000000F47F40000A9061206800F5D87000EB6E
:1024100001104068000C5061206800F5D87000EB96
:10242000011080681870206800F5D87000EB01106A
:10243000806800F47F40000A5870206800F5D8706A
:1024400000EB0110806800F47F0000E03CE0000C2D
:102450009870206800F5D87000EB01108068000EBD
:10246000D870206800F5D87000EB0110C0681871B2
:10247000206800F5D87000EB0110C06800F47F40C0
:10248000000A5871206800F5D87000EB0110C06890
:1024900000F47F00000C9871206800F5D87000EB04
:1024A0000110C068000ED87131B92068C06840F0D2
:1024B00020002668F06005E02068006940F02000F8
:1024C0002668306100204EE7606A40F48020606238
:1024D000012048E72DE9F05F0446002520684669A1
:1024E0002068D0F80490206887682068D0F80CA095
:1024F0002068D0F810B02068D0F8188006F00100ED
:10250000002855D007F00100C0B101202168886083
:1025100007F0020018B1204600F041FA0EE007F083
:10252000040010B145F4006508E007F0080010B1A0
:1025300045F4805502E0204600F030FA07F4807040
:10254000C8B14FF480702168886007F4007018B13A
:10255000204600F026FA0EE007F4806010B145F442
:10256000005508E007F4006010B145F4804502E032
:10257000204600F015FA07F48030C8B14FF48030DF
:102580002168886007F4003018B1204600F00BFA8B
:102590000EE007F4802010B145F4004508E007F490
:1025A000002010B145F4803502E0204600F0FAF931
:1025B00006F0080038B10AF0100020B145F40075AB
:1025C00010202168C86006F0040040B10AF008003D
:1025D00028B108202168C860204600F0A1F906F063
:1025E000020038B12068C06800F0030010B1204636
:1025F00000F098F906F0400038B10BF0100020B15F
:1026000045F4806510202168086106F0200040B183
:102610000BF0080028B1082021680861204600F06E
:102620008BF906F0100038B12068006900F0030053
:1026300010B1204600F081F906F4003040B109F0F5
:10264000100028B1102021684860204600F076F97B
:1026500006F4803040B109F0080028B10820216854
:102660004860204600F0A0F906F4004088B309F065
:10267000040078B306F4807020B108F0010008B1BE
:1026800045F0010506F4007020B108F0020008B121
:1026900045F0020506F4806020B108F0040008B19E
:1026A00045F0040506F40060A0B108F0700088B1A0
:1026B00008F07000402817D006DC10280BD0202826
:1026C0000CD0302819D10CE0502810D0602814D13B
:1026D00010E01DE019E045F008050FE045F0100599
:1026E0000CE045F0200509E045F0400506E045F026
:1026F000800503E045F4807500E000BF00BF20685E
:10270000806920F070002168886104202168486099
:102710002DB1606A284360622046FFF710FEBDE8D5
:10272000F09F70B504460CB9012070BD94F82000EC
:1027300010B9204600F0B0F82068006840F00100B1
:102740002168086000F01AFB05460DE000F016FB5A
:10275000401B0A2808D9606A40F4003060620520F6
:1027600084F820000120E0E72068406800F00100C4
:102770000028EBD02068006820F002002168086083
:1027800000F0FCFA05460DE000F0F8FA401B0A28BC
:1027900008D9606A40F400306062052084F82000A7
:1027A0000120C2E72068406800F002000028EBD159
:1027B000207E012806D12068006840F08000216852
:1027C000086005E02068006820F08000216808604B
:1027D000607E012806D12068006840F04000216832
:1027E000086005E02068006820F04000216808606B
:1027F000A07E012806D12068006840F020002168F2
:10280000086005E02068006820F02000216808606A
:10281000E07E012806D12068006820F010002168C1
:10282000086005E02068006840F01000216808603A
:10283000207F012806D12068006840F00800216848
:10284000086005E02068006820F008002168086042
:10285000607F012806D12068006840F004002168EC
:10286000086005E02068006820F004002168086026
:10287000D4E902010843216908436169084361689A
:10288000491E08432168C86100206062012084F865
:102890002000002049E7000010B586B0044614214E
:1028A00001A8FDF7D5FC1C492068884231D100BF42
:1028B0001A48C06940F000701849C8610846C069EC
:1028C00000F00070009000BF00BF00BF08464069E4
:1028D00040F4003048610846406900F40030009040
:1028E00000BF00BF4FF4C0500190022002900020B2
:1028F0000390032004900920059001A9C00600F070
:1029000055F900221146142000F054FE142000F066
:1029100041FE06B010BD00000064004000100240FF
:102920007047000010B50446024A00212046FEF719
:10293000FFFA10BD7000002070477047704770B5F7
:10294000044694F82000012822D1022084F82000B7
:102950002068006820F001002168086000F00EFA8D
:1029600005460DE000F00AFA401B0A2808D9606A03
:1029700040F400306062052084F82000012070BD22
:102980002068406800F001000028EBD16062F6E7A3
:10299000606A40F4002060620120F0E770477047F1
:1029A0007047704770477047704770B50446E06BDA
:1029B00005682068066894F8401004208840284084
:1029C000D0B106F00400B8B12068006800F0200023
:1029D00028B92068006820F004002168086094F895
:1029E000401004208840E16B4860E06A00284ED027
:1029F0002046E16A88474AE094F840100220884067
:102A0000284008B306F00200F0B12068006800F02A
:102A1000200040B92068006820F00A0021680860A2
:102A2000012084F8210094F8401002208840E16BD6
:102A3000486000BF002084F8200000BFA06A30B3C7
:102A40002046A16A884722E094F840100820884078
:102A50002840E0B106F00800C8B12068006820F006
:102A60000E002168086094F8401001208840E16B56
:102A700048600120A06384F8210000BF002084F892
:102A8000200000BF206B10B12046216B884770BD2D
:102A900070B5044600250CB9012070BD022084F8F1
:102AA00021002068056843F6F0708543D4E90101F0
:102AB0000843E16808432169084361690843A16943
:102AC0000843E16908430543206805602046FEF796
:102AD000D9FA0020A063012084F82100002084F8A6
:102AE000200000BFD9E72DE9F04104460D46164607
:102AF0001F464FF0000800BF94F82000012802D1C3
:102B00000220BDE8F081012084F8200000BF94F885
:102B1000210001282CD1022084F821000020A0638C
:102B20002068006820F00100216808603B463246BA
:102B300029462046FEF7B4FAE06A30B12068006802
:102B400040F00E00216808600BE02068006840F04B
:102B50000A00216808602068006820F004002168ED
:102B600008602068006840F001002168086006E005
:102B700000BF002084F8200000BF4FF0020840464C
:102B8000BFE7000070B5044600F0F8F80646254699
:102B9000681C10B104480078054400BF00F0EEF84E
:102BA000801BA842FAD370BD0800002078B5034608
:102BB0000A460021C0E001268E40156805EA060499
:102BC000002C73D0157905F00305012D04D015797B
:102BD00005F00305022D13D198684E000325B5407A
:102BE000A8434E00D568B540284398605868012531
:102BF0008D40A8431579C5F300158D4028435860D2
:102C0000157905F00305032D09D0D8684E0003257A
:102C1000B540A8434E009568B5402843D860157963
:102C200005F00305022D13D1CE0803F1200555F858
:102C300026004D07EE0E0F25B540A8434E07F60EB1
:102C40001569B5402843CE0803F1200545F8260054
:102C500018684E000325B540A843157905F0030513
:102C60004E00B54028431860556805F44035002DE6
:102C700061D000BF334DAD6945F00105314EB561FE
:102C80003546AD6905F00105009500BF00BF4FEA6C
:102C9000B6358E0855F826008D072E0F0F25B54046
:102CA000A843B3F1904F02D1002510E043E0264D38
:102CB000AB4201D101250AE0244DAB4201D10225EE
:102CC00005E0234DAB4201D1032500E005258E0729
:102CD000360FB54028431F4D8E0845F826001E4D7F
:102CE0002868A043556805F4801505B120431A4DA6
:102CF00028602D1D2868A043556805F4001505B10E
:102D00002043154D2D1D2860134D2D1F2868A0430D
:102D1000556805F4003505B120430F4D2D1F28607F
:102D20002D1F2868A043556805F4803505B1204360
:102D3000094D083D2860491C1568CD40002D7FF4E1
:102D40003AAF78BD00100240000400480008004877
:102D5000000C0048080001400804014010B5426919
:102D600021EA020302EA010443EA0443836110BD3D
:102D70000AB1816100E0816270470000014800688B
:102D80007047000000000020024600BF92F8C0001B
:102D9000012801D102207047012082F8C00000BF45
:102DA000022082F8C100481C80B91068D0F8CC031A
:102DB00020F002031068C0F8CC331068D0F8CC03C0
:102DC00040F001031068C0F8CC3318E01068D0F868
:102DD000CC0340F002031068C0F8CC331068D0F880
:102DE000CC0320F00C0008431368C3F8CC03106830
:102DF000D0F8CC0340F001031068C0F8CC330120B8
:102E000082F8C1000020C6E730B503460C4693F8AF
:102E1000C100022800D130BD00BF93F8C0000128D6
:102E200001D10220F7E7012083F8C00000BF022093
:102E300083F8C100108800F4E0519088C0F30800C6
:102E40000143108900F400700143108A00F48040AF
:102E50000143908900F400400143908A134D05EA34
:102E600000400143906900F000700143106A00F0D7
:102E700080400143D06900F0004001431868803071
:102E800000EBC410806B0A4D284008431D68803554
:102E900005EBC415A863012083F8C10000BF002022
:102EA00083F8C00000BF00BFB5E700000000FF01CD
:102EB0000020003CF8B504460CB90120F8BD022002
:102EC000C43404F8030C002020606060A060E0605F
:102ED00020616061C43C207A00F0010008B33549EC
:102EE000206888420DD100BF3348806940F000500F
:102EF000314988610846806900F00050009000BFA9
:102F000000BF2068066826F44046208A00F440404E
:102F1000064326F44056A08A00F440500643206839
:102F20000660204600F04AF8207A00F0020048B11E
:102F30002068066826F44076A08900F440700643B5
:102F400020680660012084F8C10000BF002084F8DA
:102F5000C00000BF002529E00021C5EBC50204F137
:102F6000180040F82210C5EBC50200EB820041605A
:102F7000C5EBC50204F1180000EB82008160C5EBCF
:102F8000C50204F1180000EB8200C160C5EBC50268
:102F900004F1180000EB82000161C5EBC50204F1E9
:102FA000180000EB82008161681CC5B2052DD3D9E1
:102FB000002083E7007401400010024008B5094A70
:102FC000016891420DD100BF0749896941F0005164
:102FD000054A91611146896901F00051009100BFD5
:102FE00000BF08BD007401400010024010B586B05B
:102FF0000446142101A8FDF72BF9204920688842D6
:1030000039D100BF1E48406940F480201C49486106
:103010000846406900F48020009000BF00BF00BF58
:103020000846406940F4003048610846406900F4B1
:103030000030009000BF00BF4FF4404001900220DC
:10304000029000200390032004900D20059001A918
:103050000C48FFF7ABFD4FF4407001900220029046
:1030600000200390032004900D20059001A94FF04B
:103070009040FFF79BFD06B010BD000000740140BA
:10308000001002400004004870B504460D46FFF7EA
:1030900075FE06460CE0681C50B1FFF76FFE801B02
:1030A000A84200D825B9072084F8C100032070BDCC
:1030B0002068D0F88803C0F300400028EBD001203E
:1030C00084F8C10000BF002084F8C00000BF00BF2A
:1030D000EDE770B504460D46164694F8C100022887
:1030E00000D170BD022084F8C100052D04D1314605
:1030F000204601F0F4FE04E032462946204601F065
:10310000A9FF012084F8C1000020EAE730B5044699
:1031100094F8C100022800D130BD00BF94F8C0006F
:10312000012801D10220F7E7012084F8C00000BF88
:10313000022084F8C100052928D1012A06D0022ADC
:1031400008D0042A0AD0082A10D10BE01868256894
:10315000E86114E018682568686210E0186825685E
:10316000A8620CE018682568E86208E0072084F887
:10317000C10000BF002084F8C00000BF00BF00BF36
:1031800094F8C10007287DD10120C5E7012A06D0A7
:10319000022A0BD0042A4CD0082A74D150E01D68B2
:1031A0002068803000EBC110C5619AE01D6820687E
:1031B000803000EBC1104562586868B320688030E9
:1031C00000EBC110006820F440552068803000EB0F
:1031D000C11005602068803000EBC11000685D6898
:1031E00028432568803505EBC11528605868B0F57F
:1031F000005F06D19D682068803000EBC110C5617A
:1032000016E05868B0F5405F12D19D6820688030A4
:1032100000EBC11085620BE02068803000EBC1102C
:10322000006820F440502568803505EBC115286002
:1032300057E01D682068803000EBC110856250E0C7
:103240001D682068803000EBC110C562586888B3E3
:103250002068803000EBC110006820F440452068F1
:10326000803000EBC11005602068803000EBC11099
:1032700000685D6840EA85052068803000EBC11079
:10328000056001E034E023E05868B0F5005F06D146
:103290009D682068803000EBC110C56117E0586858
:1032A000B0F5405F13D19D682068803000EBC110FD
:1032B00085620CE0FFE72068803000EBC1100068F9
:1032C00020F440402568803505EBC115286008E0F2
:1032D000072084F8C10000BF002084F8C00000BFB0
:1032E00000BF00BF94F8C100072801D1012013E7F7
:1032F000012084F8C10000BF002084F8C00000BF96
:1033000000BF09E7024600BF92F8C000012801D1C2
:1033100002207047012082F8C00000BF022082F81E
:10332000C10010680068084313681860012082F823
:10333000C10000BF002082F8C00000BF00BFE8E766
:103340002DE9F04104460D4616461F4694F8C1008B
:10335000022801D1BDE8F08100BF94F8C000012827
:1033600001D10220F6E7012084F8C00000BF02204E
:1033700084F8C1003B4632462946204601F0F1FD63
:10338000012084F8C10000BF002084F8C00000BF05
:1033900000BFDFE7024600BF92F8C000012801D15C
:1033A00002207047012082F8C00000BF022082F88E
:1033B000C1001068D0F8940308431368C3F894035D
:1033C000012082F8C10000BF002082F8C00000BFC9
:1033D00000BFE6E7024600BF92F8C000012801D115
:1033E00002207047012082F8C00000BF022082F84E
:1033F000C1001068D0F8980308431368C3F8980315
:10340000012082F8C10000BF002082F8C00000BF88
:1034100000BFE6E770B504460D46164694F8C100B5
:10342000022800D170BD00BF94F8C000012801D16E
:103430000220F7E7012084F8C00000BF022084F8D2
:10344000C100052D04D13146204601F05CFD04E0A9
:1034500032462946204601F01DFEC5EBC50204F1A7
:10346000180000EB820031688160C5EBC50204F1F1
:10347000180000EB82007168C160C5EBC50204F161
:10348000180000EB8200B1680161C5EBC50204F1D0
:10349000180000EB8200F1684161C5EBC50204F140
:1034A000180000EB8200316981612946204601F055
:1034B000D6FC012084F8C10000BF002084F8C000C1
:1034C00000BF00BFAEE70000034800680349097869
:1034D00008440149086070470000002008000020EF
:1034E00010B50848006840F0100006490860032045
:1034F00000F09EF80F2000F007F800F02BF80020F5
:1035000010BD00000020024070B504460E4800784F
:103510004FF47A71B1FBF0F00C490968B1FBF0F59A
:10352000284601F089F808B1012070BD102C07D29F
:1035300000222146501E00F03DF80548046001E0DD
:103540000120F2E70020F0E7080000200C00002036
:103550000400002008B500BF0D48806940F001005C
:103560000B4988610846806900F00100009000BFA7
:1035700000BF00BF0846C06940F08050C8610846DF
:10358000C06900F08050009000BF00BF08BD00007F
:103590000010024001460846002809DB00F01F0326
:1035A00001229A4043099B0003F1E023C3F8002164
:1035B00000BF70472DE9F05F80460D461646002794
:1035C00003F010F9074639462A46334601F0070052
:1035D000C0F1070ABAF1040F02D94FF0040A01E062
:1035E000C0F1070AD14600F1040ABAF1070F02D26E
:1035F0004FF0000A01E0A0F1030AD4464FF0010A9F
:103600000AFA09FAAAF1010A0AEA020A0AFA0CFA03
:103610004FF0010B0BFA0CFBABF1010B0BEA030BA8
:103620004AEA0B042146404603F0E4F8BDE8F09F67
:1036300000BF00F00702064B19684FF6FF03194060
:10364000044B0B4343EA0221014B196000BF704752
:103650000CED00E00000FA05F8B504460026002550
:103660000027206800F48030B0F5803F73D17A489D
:10367000C06900F0805070B900BF7748C06940F061
:1036800080507549C8610846C06900F080500090BC
:1036900000BF00BF01277148006800F48070B0B916
:1036A0006E48006840F480706C490860FFF766FB64
:1036B000064606E0FFF762FB801B642801D9032061
:1036C000F8BD6648006800F480700028F2D06248B7
:1036D000006A00F44075002D6BD0A08800F44070A3
:1036E000A84266D05C48006A20F4407501210804B5
:1036F00090FAA0F0B0FA80F0594A02EB8000C0F8CE
:1037000000140020090491FAA1F1B1FA81F102EB51
:103710008101C1F800045048056205F00100B8B30A
:10372000FFF72CFB064608E0FFF728FB801B41F261
:103730008831884201D90320C2E74020022191FA52
:10374000A1F1B1FA81F108430121B1EB601F03D16E
:10375000414800681FE03BE04020022191FAA1F1BE
:10376000B1FA81F108430221B1EB601F02D13A485E
:10377000006A10E04020022191FAA1F1B1FA81F132
:1037800008430421B1EB601F03D13348406802E0D5
:103790000FE03148406A4021022292FAA2F2B2FAC6
:1037A00082F2114301F01F020121914008400028DC
:1037B000BAD02948006A20F440706168084326495D
:1037C0000862012F04D10846C06920F08050C8610A
:1037D000207800F0010038B11F48006B20F0030092
:1037E000A16808431C490863207800F020002028C5
:1037F00007D11948006B20F01000E1680843164912
:103800000863207800F08000802807D11248C06A41
:1038100020F4F870216908430F49C862208800F439
:103820008050B0F5805F07D10B48006B20F48070AA
:103830006169084308490863208800F48040B0F5B6
:10384000804F07D10448006B20F48050A1690843E1
:1038500001490863002033E7001002400070004077
:103860000000424270B504460D4600260CB9012006
:1038700070BDA248006800F00700A8420ED29F4821
:10388000006820F0070028439C490860084600684B
:1038900000F00700A84201D00120E9E7207800F0FD
:1038A0000200022807D19648406820F0F000A16885
:1038B000084393494860207800F0010000287CD03C
:1038C000606801283BD12020010391FAA1F1B1FAEF
:1038D00081F108430121B1EB601F02D188480068E3
:1038E0001DE02020010391FAA1F1B1FA81F1084312
:1038F0000221B1EB601F02D18148006A0FE0202055
:10390000010391FAA1F1B1FA81F108430421B1EB6D
:10391000601F02D17A48406801E07948406A20215E
:103920000A0392FAA2F2B2FA82F2114301F01F02E4
:1039300001219140084000287CD1012098E760686F
:1039400002283BD12020010591FAA1F1B1FA81F1C1
:1039500008430121B1EB601F02D1694800681DE0F6
:103960002020010591FAA1F1B1FA81F10843022169
:10397000B1EB601F02D16248006A0FE02020010510
:1039800091FAA1F1B1FA81F108430421B1EB601F72
:1039900002D15B48406801E05948406A20210A058D
:1039A00092FAA2F2B2FA82F2114301F01F0201214F
:1039B00091400840E8BB01205AE758E0202002214E
:1039C00091FAA1F1B1FA81F108430121B1EB601F35
:1039D00002D14B4800681DE02020022191FAA1F19C
:1039E000B1FA81F108430221B1EB601F02D14448D2
:1039F000006A0FE02020022191FAA1F1B1FA81F1D1
:103A000008430421B1EB601F02D13D48406801E04A
:103A10003B48406A2021022292FAA2F2B2FA82F2D4
:103A2000114301F01F0201219140084008B9012013
:103A30001EE7FFE73248406820F003006168084352
:103A40002F494860FFF79AF9064608E0FFF796F914
:103A5000801B41F28831884201D9032008E72848B9
:103A6000406800F00C006168B0EB810FEED1234894
:103A7000006800F00700A8420ED92048006820F036
:103A8000070028431D4908600846006800F0070049
:103A9000A84201D00120EBE6207800F004000428C1
:103AA00007D11748406820F4E060E16808431449F2
:103AB0004860207800F00800082808D110484068C5
:103AC00020F46050216940EAC1000D49486000F0CF
:103AD00051F80B49496801F0F001F02292FAA2F284
:103AE000B2FA82F2D140074A515CC84006490860E8
:103AF00006480068FFF708FD0020B9E600200240F4
:103B000000100240447200080C0000200400002055
:103B100001480068704700000C00002000B5FFF766
:103B2000F7FF0749496801F4E0614FF4E06292FA57
:103B3000A2F2B2FA82F2D140024A515CC84000BD02
:103B4000001002405472000800B5FFF7E1FF07497A
:103B5000496801F460514FF4605292FAA2F2B2FA4D
:103B600082F2D140024A515CC84000BD00100240C0
:103B7000547200082DE9F04100240025002700269A
:103B8000A0461F48446804F00C0078B3042802D013
:103B900008282CD102E0DFF86C802CE004F47010CF
:103BA0004FF4701191FAA1F1B1FA81F1C8401649B0
:103BB0000E5C1348C06A00F00F000F2191FAA1F1CA
:103BC000B1FA81F1C84011490D5C04F4803040B174
:103BD0002A4600230B481946FCF7F2FAA0FB0671AF
:103BE00002E00B48A0FB0671B84604E000E000BF0D
:103BF000DFF8108000BF00BF4046BDE8F081000044
:103C00000010024000127A0024720008347200088A
:103C100000093D00F8B504460CB90120F8BD207834
:103C200000F0010000287BD0FA48406800F00C004A
:103C300004280CD0F748406800F00C00082845D153
:103C4000F448406800F48030B0F5803F3ED1202039
:103C5000010391FAA1F1B1FA81F108430121B1EB1D
:103C6000601F02D1EB4800681DE02020010391FA9B
:103C7000A1F1B1FA81F108430221B1EB601F02D139
:103C8000E448006A0FE02020010391FAA1F1B1FAA3
:103C900081F108430421B1EB601F02D1DD48406887
:103CA00001E0DC48406A20210A0392FAA2F2B2FA4B
:103CB00082F2114301F01F020121914008400028C7
:103CC000B1D0606800282BD10120A7E700BF606851
:103CD000B0F5803F06D1CF48006840F48030CD4930
:103CE000086029E0606858B9CA48006820F480304C
:103CF000C84908600846006820F4802008601BE07E
:103D00006068B0F5A02F0CD1C248006840F4802054
:103D1000C04908600846006840F4803008600BE045
:103D2000A1E0BC48006820F48030BA490860084629
:103D3000006820F48020086000BFB648C06A20F008
:103D40000F00A1680843B349C8626068A0B3FFF7D9
:103D500015F8054606E0FFF711F8401B642801D965
:103D600003205BE72020010391FAA1F1B1FA81F170
:103D700008430121B1EB601F02D1A64800681EE094
:103D80002020010391FAA1F1B1FA81F10843022147
:103D9000B1EB601F02D19F48006A10E020200103B0
:103DA00091FAA1F1B1FA81F108430421B1EB601F4E
:103DB00003D19848406802E010E09648406A20210C
:103DC0000A0392FAA2F2B2FA82F2114301F01F0240
:103DD0000121914008400028BDD044E0FEF7CEFF0D
:103DE000054606E0FEF7CAFF401B642801D9032000
:103DF00014E72020010391FAA1F1B1FA81F10843FF
:103E00000121B1EB601F02D1824800681DE0202033
:103E1000010391FAA1F1B1FA81F108430221B1EB5A
:103E2000601F02D17B48006A0FE02020010391FA55
:103E3000A1F1B1FA81F108430421B1EB601F02D175
:103E40007448406801E07348406A20210A0392FAEE
:103E5000A2F2B2FA82F2114301F01F020121914055
:103E600008400028BED1207800F0020002285CD172
:103E70006848406800F00C0050B16648406800F0A7
:103E80000C00082852D16348406800F48030E8BB39
:103E90002020022191FAA1F1B1FA81F10843012118
:103EA000B1EB601F02D15B4800681DE020200221B9
:103EB00091FAA1F1B1FA81F108430221B1EB601F3F
:103EC00002D15448006A0FE02020022191FAA1F1AA
:103ED000B1FA81F108430421B1EB601F02D14D48D2
:103EE000406801E04B48406A2021022292FAA2F287
:103EF000B2FA82F2114301F01F0201219140084001
:103F000028B12069012802D0012087E60EE041484F
:103F1000006820F0F800F82292FAA2F2B2FA82F2D7
:103F20006169914008433B490860B1E0206970B382
:103F3000012191FAA1F0B0FA80F0374A42F820103E
:103F4000FEF71CFF054606E0FEF718FF401B02289F
:103F500001D9032062E62020022191FAA1F1B1FAF1
:103F600081F108430121B1EB601F02D129480068AB
:103F70001EE02020022191FAA1F1B1FA81F108435B
:103F80000221B1EB601F03D12248006A10E02CE04F
:103F90002020022191FAA1F1B1FA81F10843042114
:103FA000B1EB601F02D11B48406801E01948406A2C
:103FB0002021022292FAA2F2B2FA82F2114301F017
:103FC0001F020121914008400028BDD0114800681F
:103FD00020F0F800F82292FAA2F2B2FA82F26169B5
:103FE000914008430B49086052E00020012191FAFA
:103FF000A1F1B1FA81F1084A42F82100FEF7BEFEB4
:1040000005460BE0FEF7BAFE401B022806D9032046
:1040100004E600000010024000004242202002217D
:1040200091FAA1F1B1FA81F108430121B1EB601FCE
:1040300002D1FB4800681DE02020022191FAA1F185
:10404000B1FA81F108430221B1EB601F02D1F448BB
:10405000006A0FE02020022191FAA1F1B1FA81F16A
:1040600008430421B1EB601F02D1ED48406801E034
:10407000EB48406A2021022292FAA2F2B2FA82F2BE
:10408000114301F01F020121914008400028B9D1DD
:10409000207800F00800082851D1A06980B30121E0
:1040A00091FAA1F0B0FA80F0DE4A02EB8000C0F88D
:1040B0008014FEF763FE054606E0FEF75FFE401B38
:1040C000022801D90320A9E56020022191FAA1F17B
:1040D000B1FA81F108430121B1EB601F02D1D04850
:1040E00000681EE06020022191FAA1F1B1FA81F18D
:1040F00008430221B1EB601F03D1C948006A10E0F8
:104100001EE06020022191FAA1F1B1FA81F1084389
:104110000421B1EB601F02D1C148406801E0C048F2
:10412000406A6021022292FAA2F2B2FA82F21143AC
:1041300001F01F020121914008400028BDD04FE04E
:104140000020012191FAA1F1B1FA81F1B54A02EB07
:104150008101C1F88004FEF711FE054606E0FEF776
:104160000DFE401B022801D9032057E560200221E3
:1041700091FAA1F1B1FA81F108430121B1EB601F7D
:1041800002D1A74800681DE06020022191FAA1F148
:10419000B1FA81F108430221B1EB601F02D1A048BE
:1041A000006A0FE06020022191FAA1F1B1FA81F1D9
:1041B00008430421B1EB601F02D19948406801E037
:1041C0009748406A6021022292FAA2F2B2FA82F281
:1041D000114301F01F020121914008400028BED187
:1041E000207800F00400042873D100278C48C069AF
:1041F00000F0805070B900BF8948C06940F080501D
:104200008749C8610846C06900F08050009000BF2F
:1042100000BF01278448006800F48070B0B982486C
:10422000006840F4807080490860FEF7A7FD0546ED
:1042300006E0FEF7A3FD401B642801D90320EDE44E
:104240007948006800F480700028F2D000BFE06870
:10425000012806D17248006A40F0010070490862E6
:1042600027E0E06858B96E48006A20F001006C4908
:1042700008620846006A20F00400086219E0E0685D
:1042800005280BD16648006A40F0040064490862C2
:104290000846006A40F0010008620AE06048006ACF
:1042A00020F001005E4908620846006A20F0040020
:1042B000086200BFE068B8B3FEF760FD054609E09C
:1042C000FEF75CFD401B41F28831884202D9032091
:1042D000A4E48BE04020022191FAA1F1B1FA81F12E
:1042E00008430121B1EB601F02D14D4800681EE078
:1042F0004020022191FAA1F1B1FA81F10843022193
:10430000B1EB601F02D14648006A10E04020022154
:1043100091FAA1F1B1FA81F108430421B1EB601FD8
:1043200003D13F48406802E010E03D48406A402128
:10433000022292FAA2F2B2FA82F2114301F01F02B3
:104340000121914008400028BAD046E0FEF716FD52
:10435000054608E0FEF712FD401B41F28831884215
:1043600001D903205AE44020022191FAA1F1B1FAC7
:1043700081F108430121B1EB601F02D12848006898
:104380001DE04020022191FAA1F1B1FA81F1084328
:104390000221B1EB601F02D12148006A0FE04020EA
:1043A000022191FAA1F1B1FA81F108430421B1EBA4
:1043B000601F02D11A48406801E01948406A402154
:1043C000022292FAA2F2B2FA82F2114301F01F0223
:1043D0000121914008400028BCD1012F05D110488F
:1043E000C06920F080500E49C86100BFE069002814
:1043F00074D00B48406800F00C0008286FD0E069CA
:1044000002286DD100204FF0807191FAA1F1B1FA2C
:1044100081F1044A42F82100FEF7B0FC05460CE0A9
:10442000001002400000424200700040FEF7A6FC6F
:10443000401B022801D9032047E42020010591FAFE
:10444000A1F1B1FA81F108430121B1EB601F02D162
:10445000774800681DE02020010591FAA1F1B1FA2A
:1044600081F108430221B1EB601F02D17048006A5C
:104470000FE02020010591FAA1F1B1FA81F1084382
:104480000421B1EB601F02D16948406801E068482F
:10449000406A20210A0592FAA2F2B2FA82F211438E
:1044A00001F01F020121914008400028BED1D4E94B
:1044B000081008435E49496821F4741108435C49B7
:1044C00048600120010691FAA1F1B1FA81F1594A3F
:1044D00042F82100FEF752FC054609E0A5E092E013
:1044E00041E0FEF74BFC401B022801D9032038E4D1
:1044F0002020010591FAA1F1B1FA81F108430121CF
:10450000B1EB601F02D14A4800681DE02020010580
:1045100091FAA1F1B1FA81F108430221B1EB601FD8
:1045200002D14348006A0FE02020010591FAA1F171
:10453000B1FA81F108430421B1EB601F02D13C487C
:10454000406801E03A48406A20210A0592FAA2F246
:10455000B2FA82F2114301F01F020121914008409A
:104560000028BED061E000204FF0807191FAA1F1E7
:10457000B1FA81F12F4A42F82100FEF7FFFB054610
:1045800006E0FEF7FBFB401B022801D903202FE4C5
:104590002020010591FAA1F1B1FA81F1084301212E
:1045A000B1EB601F02D1224800681DE02020010508
:1045B00091FAA1F1B1FA81F108430221B1EB601F38
:1045C00002D11B48006A0FE02020010591FAA1F1F9
:1045D000B1FA81F108430421B1EB601F02D1144804
:1045E000406801E01248406A20210A0592FAA2F2CE
:1045F000B2FA82F2114301F01F02012191400840FA
:104600000028BED111E0E069012800D17DE408480E
:10461000466806F48031206A814204D106F47011A4
:10462000606A814201D001206FE400206DE4000047
:10463000001002400000424270B504462546681E44
:10464000B0F1807F01D301200FE0681E4FF0E02120
:1046500048610F214FF0FF3002F0CCF800204FF0FE
:10466000E021886107200861002070BD7047704715
:104670007047000030B502460B4600BF92F83C0080
:10468000012801D1022030BD012082F83C0000BF8A
:10469000022082F83D001068416810688468174D58
:1046A0001068A84203D121F470015868014321F039
:1046B00070011868014310684160104D1068A842ED
:1046C0000BD01068B0F1804F07D00D4D1068A84294
:1046D00003D00C4D1068A84205D124F080049868DE
:1046E000044310688460012082F83D0000BF002070
:1046F00082F83C0000BF00BFC5E70000002C01406D
:10470000000400400040014010B504460CB90120EF
:1047100010BD94F83D0028B9002084F83C002046E4
:1047200000F02AF8022084F83D00211D206801F0E5
:10473000E7FB012084F8480000BF84F83E00012117
:104740003F2001554020015541200155422001558F
:104750004320015500BF00BF012084F844004520DC
:104760000155462001554720015500BF012084F81E
:104770003D000020CCE7000038B504462068B0F1C9
:10478000804F15D100BF0B48C06940F001000949B6
:10479000C8610846C06900F00100009000BF00BF7A
:1047A000002211461C20FEF705FF1C20FEF7F2FE3A
:1047B00038BD000000100240014691F83D0001287C
:1047C00001D001207047022081F83D000868C068D0
:1047D00040F001000B68D860144B086898420BD079
:1047E0000868B0F1804F07D0114B0868984203D099
:1047F000104B0868984210D1086880680E4B00EA98
:104800000302062A0FD0B2F5803F0CD0086800687A
:1048100040F001000B68186005E00868006840F08F
:1048200001000B6818600020CCE70000002C01405C
:104830000004004000400140070001002DE9F04164
:1048400004460D46002700BF94F83C00012802D121
:104850000220BDE8F081012084F83C0000BF022066
:1048600084F83D00206886683748064026F47F4675
:10487000206886602868502833D00CDC202850D06F
:1048800004DC00284BD0102851D149E0302849D011
:1048900040284CD139E060282DD0702807D0B0F5E1
:1048A000805F03D0B0F5005F41D10DE041E0D5E974
:1048B00002136A68206801F06DFB2068866846F084
:1048C00077062068866034E0D5E902136A682068BC
:1048D00001F060FB2068806840F4804021688860B7
:1048E00027E0EA686968206801F068FB50212068C9
:1048F00001F05BFB1DE0EA686968206801F071FB6C
:104900006021206801F051FB13E0EA6869682068C3
:1049100001F054FB4021206801F047FB09E000BF93
:1049200000BF00BF2968206801F03FFB01E00127BC
:1049300000BF00BF012084F83D0000BF002084F8C4
:104940003C0000BF384684E788FFFEFF704710B583
:10495000044620680069C0F34000D8B12068C068F0
:10496000C0F34000B0B16FF002002168086101207F
:1049700020772068806900F0030018B12046FFF717
:10498000E5FF05E0204600F0BEF8204600F0BCF848
:104990000020207720680069C0F38000D8B120682B
:1049A000C068C0F38000B0B16FF0040021680861F6
:1049B000022020772068806900F4407018B12046FA
:1049C000FFF7C4FF05E0204600F09DF8204600F008
:1049D0009BF80020207720680069C0F3C000D8B1A0
:1049E0002068C068C0F3C000B0B16FF00800216853
:1049F0000861042020772068C06900F0030018B126
:104A00002046FFF7A3FF05E0204600F07CF8204693
:104A100000F07AF80020207720680069C0F30010C9
:104A2000D8B12068C068C0F30010B0B16FF01000BA
:104A300021680861082020772068C06900F4407070
:104A400018B12046FFF782FF05E0204600F05BF832
:104A5000204600F059F8002020772068006900F017
:104A6000010058B12068C06800F0010030B16FF05B
:104A7000010021680861204600F048F820680069BC
:104A8000C0F3C01058B12068C068C0F3C01030B186
:104A90006FF08000216808612046FFF7E8FD20687C
:104AA0000069C0F3002058B12068C068C0F3C0108E
:104AB00030B16FF48070216808612046FFF7D6FDA1
:104AC00020680069C0F3801058B12068C068C0F346
:104AD000801030B16FF0400021680861204600F07E
:104AE0009FF820680069C0F3401058B12068C06882
:104AF000C0F3401030B16FF02000216808612046FB
:104B0000FFF7B6FD10BD70477047000010B52DEDE2
:104B10000A8B88B004462068B0F1804F65D13548D3
:104B20000088401C33490880084600884FF47A7199
:104B300090FBF1F201FB120010B9002000F0B2FC72
:104B400000F0CEFF2B480088052190FBF1F201FB1D
:104B50001200E0BB28480088401C27490880082232
:104B600040F201612548FCF729FA254890ED000A3A
:104B700010EE100AFBF777FB41EC180B214890ED83
:104B8000000A10EE101A0846FBF76DFB41EC190BFA
:104B90001C4890ED010A10EE101A0846FBF763FB63
:104BA00041EC1A0B184890ED010A10EE101A084655
:104BB000FBF759FB41EC1B0B124890ED020A10EE7B
:104BC000101A0846FBF74FFB41EC1C0B00E00CE011
:104BD0008DED068B8DED049B8DED02AB8DED00BB55
:104BE00053EC1C2B09A001F0EDFD08B0BDEC0A8BC5
:104BF00010BD00006E000020780000201C01002085
:104C00005C000020FC0300201404002025662C25F5
:104C1000662C25662C25662C25660D0A00000000F2
:104C200070477047704710B504460CB9012010BD9D
:104C3000A06900B100E000BFE06F28B9002084F84F
:104C40007800204600F02AF82420E06720680068F9
:104C500020F0010021680860204601F0B5FB012822
:104C600000D1E4E7606A10B1204601F0E3F9206862
:104C7000406820F49040216848602068806820F0F7
:104C80002A00216888602068006840F001002168DF
:104C90000860204601F04AFAC9E7000010B586B066
:104CA0000446142101A8FBF7D3FA2449206888425E
:104CB00041D100BF2248C06940F400302049C8619A
:104CC0000846C06900F40030009000BF00BF00BF7C
:104CD0000846406940F4802048610846406900F475
:104CE0008020009000BF00BF182001900220029099
:104CF00000200390032004900720059001A911488B
:104D0000FDF754FF10481149086010204860002149
:104D10000E4881608021C160002101614161816193
:104D2000C161FDF7B5FE08B1FCF721FA00BF0748E5
:104D30002067446200BF06B010BD00000044004080
:104D4000001002400004004880000240F4020020ED
:104D500070B504460D461646D4F8800020281DD1B3
:104D600005B10EB9012070BD0020206620684068A2
:104D700000F4000060B100BF00BF216851E8001FCF
:104D800041F08060226842E800010029F5D100BFAF
:104D900032462946204601F0EDFBE4E70220E2E737
:104DA000704770472DE9F84F04460E46174699465E
:104DB000E06F202851D106B117B90120BDE8F88F66
:104DC0000020503460632120E062FDF7D7FF824667
:104DD00027806780503CA068B0F5805F04D12069CF
:104DE00010B90025B04602E035464FF000081FE03C
:104DF0005346002280212046CDF8009001F01AFC95
:104E000018B12020E0670320D8E745B9B8F80000C2
:104E1000C0F308002168088508F1020803E028783B
:104E2000216808856D1CB4F85200401EA4F8520099
:104E3000B4F852000028DBD153460022402120461E
:104E4000CDF8009001F0F6FB18B12020E0670320B8
:104E5000B4E72020E0670020B0E70220AEE7062993
:104E60003AD2DFE801F00C151E2730030268D2F8B1
:104E7000842342F001030268C2F884332DE0026803
:104E8000D2F8842342F002030268C2F8843324E09B
:104E90000268D2F8842342F004030268C2F8843323
:104EA0001BE00268D2F8842342F008030268C2F8CB
:104EB000843312E00268D2F8842342F010030268BF
:104EC000C2F8843309E00268D2F8842342F0200358
:104ED0000268C2F8843300E000BF00BF704710B51D
:104EE00003681A6822F007028B681A4322F018023E
:104EF000CB681A4303681A600B68046863614B68E7
:104F00000468A36110BD10B50246146820681468D7
:104F1000D4F8A03320F020004C69204320F4006036
:104F20008C69204320F48060CC69204320F0C0606D
:104F30000C6A204320F000604C6A204320F040407F
:104F40008C6A40EA840020F000500C6B204323F46C
:104F50008033CC6A2343146820601468C4F8A033FB
:104F600010BDF0B5154600240768803707EBC11760
:104F70007A6E0768803707EBC117BE6B202D2FD0E4
:104F80000CDC042D16D004DC012D12D0022D3BD1F7
:104F900024E0082D23D0102D36D10CE0402D0BD06D
:104FA000802D1ED0B5F5807F07D0B5F5007F2BD1C1
:104FB00018E000BF00BF00BF00BFD3F804C00768FF
:104FC000803707EBC117C7F83CC0D3F808C00768A3
:104FD000803707EBC117C7F840C016E000BF00BF1D
:104FE00000BF00BFD3F804C00768803707EBC117C4
:104FF000C7F844C0D3F808C00768803707EBC1176B
:10500000C7F848C0102400E000BF00BFFE27A7403B
:10501000BA431F68A7403A43DF68A7403A431F6975
:10502000A7403A435F69A7403A439F69A7403A4384
:105030001F69082F08D106F400772FB906F0007712
:1050400017B9DF69A7403A430768803707EBC117F4
:105050007A66F0BD30B50468803404EBC11423686F
:1050600023F007039468234323F01803D4682343F1
:105070000468803404EBC11423601568046880342C
:1050800004EBC114656155680468803404EBC114F5
:10509000A56130BD2DE9F0410346D3F800C00CF105
:1050A000800C0CEBC11CDCF800C02CF07048D3F86D
:1050B00000C00CF1800C0CEBC11CCCF80080D3F8C4
:1050C00000C00CF1800C0CEBC11CDCF80000D3F824
:1050D00000C00CF1800C0CEBC11CDCF86850D3F85C
:1050E00000C00CF1800C0CEBC11CDCF86460D3F840
:1050F00000C0DCF8A04320F02000D2F814C04CEA35
:10510000000020F40060D2F818C04CEA000020F43F
:105110008060D2F81CC04CEA000020F0C060D2F8D9
:1051200020C04CEA000020F00060D2F824C04CEA15
:10513000000020F07040D2F828C04CEA000020F4B3
:105140000030D2F830C0BCF1005F01D140F4003033
:1051500020F04000D2F834C04CEA000020F4802057
:10516000D2F850C04CEA000020F0FC70D2F848C0E1
:105170004CEA000025F01F0592F838C00CF01F0C17
:105180004CEA050525F00045D2F83CC04CEA05057F
:10519000D2F834C0BCF1000F05D126F48076D2F8E5
:1051A00040C04CEA0606D2F844C0BCF5606F04D09B
:1051B000D2F844C0BCF5F05F04D1D2F834C0BCF1E1
:1051C000400F05D126F4F056D2F844C04CEA06064A
:1051D000D76C052927D2DFE801F0030A11181F0058
:1051E00024F40034D2F82CC044EA4C041CE024F42B
:1051F0008024D2F82CC044EA8C0415E024F4002466
:10520000D2F82CC044EACC040EE024F48014D2F886
:105210002CC044EA0C1407E024F40014D2F82CC08B
:1052200044EA4C1400E000BF00BFD3F800C00CF10A
:10523000800C0CEBC11CCCF80000D3F800C00CF1C2
:10524000800C0CEBC11CCCF86850D3F800C00CF1FA
:10525000800C0CEBC11CCCF86460D3F800C00CF1DE
:10526000800C0CEBC11CCCF85470D3F800C0CCF807
:10527000A043BDE8F08100BFFEE700009FED0E0AED
:1052800080ED000A9FED0C0A80ED010A9FED0A0AED
:1052900080ED020A9FED080A80ED030A9FED060AE1
:1052A00080ED060A9FED040A80ED070A9FED020AD1
:1052B00080ED080A70470000000000009FED0A0A18
:1052C00080ED000A9FED080A80ED010A9FED060AB5
:1052D00080ED020A9FED040A80ED030A9FED020AA9
:1052E00080ED060A7047000000000000B0EE401A92
:1052F000F0EE601A31EE610AF0EE400A90ED010A1C
:1053000020EE200A80ED030A90ED030AD0ED042A76
:10531000B4EEE20AF1EE10FA04DD90ED040A80ED3D
:10532000030A0CE090ED030AD0ED052AB4EEE20A80
:10533000F1EE10FA03D290ED050A80ED030A90ED2C
:10534000080AD0ED092AB4EEE20AF1EE10FA04DD03
:1053500090ED090A80ED080A0CE090ED080AD0ED06
:105360000A2AB4EEE20AF1EE10FA03D290ED0A0A2C
:1053700080ED080A90ED030AD0ED002A90ED063A80
:1053800030EEC33A02EE830AD0ED082A90ED073AD8
:1053900072EEC32A90ED023AB0EE402A03EE622A82
:1053A000C0ED060A90ED080A80ED070A90ED080AA4
:1053B00030EE020A80ED080A90ED080AD0ED092AC5
:1053C000B4EEE20AF1EE10FA04DD90ED090A80ED88
:1053D000080A0CE090ED080AD0ED0A2AB4EEE20AC1
:1053E000F1EE10FA03D290ED0A0A80ED080A90ED72
:1053F000080A704780ED000AC0ED010A80ED021A2C
:105400009FED0A4A80ED034A80ED042AC0ED052A8B
:105410009FED064A80ED064AC0ED071AC0ED081A56
:1054200080ED093AC0ED0A3A704700000000000024
:1054300010B5044634B90122D1034FF09040FDF776
:1054400097FC0EE0022C05D1012220210548FDF732
:105450008FFC06E0012C04D1012240210148FDF718
:1054600087FC10BD0004004810B504463CB900227A
:105470004FF400414FF09040FDF77AFC0EE0022C13
:1054800005D1002220210648FDF772FC06E0012C20
:1054900004D1002240210248FDF76AFC10BD000043
:1054A0000004004810B5044634B94FF400414FF0F1
:1054B0009040FDF753FC0CE0022C04D1202105485C
:1054C000FDF74CFC05E0012C03D140210148FDF71C
:1054D00045FC10BD0004004800B589B000200690CE
:1054E0000790089018216846FAF7B2FE4FF0A040E6
:1054F000354908604FF440304860002132488160EF
:10550000012101614176002180F82010C162012152
:1055100081620021C1600521C161012180F8301044
:1055200008214161002101764163FCF771FB08B15C
:10553000FBF71DFE0020069006A92348FBF77CFE22
:1055400008B1FBF714FE0320009001200190002019
:1055500003900720029000200490059069461A48A5
:10556000FBF708FF08B1FBF702FE042000900220C1
:10557000019069461448FBF7FDFE08B1FBF7F7FD03
:105580000B2000900320019069460F48FBF7F2FEC4
:1055900008B1FBF7ECFD0C20009004200190694657
:1055A0000948FBF7E7FE08B1FBF7E1FD0D2000908D
:1055B0000520019069460448FBF7DCFE08B1FBF7C3
:1055C000D6FD09B000BD00008800002010B50F48CE
:1055D0000F4908600420486000210D4881604FF0A9
:1055E0008071C1604FF4A02101614FF480114161CD
:1055F0000021017641768176C17601774177FDF70A
:1056000090F808B1FBF7B3FD10BD00000064004046
:105610001C01002008B500BF0E48406940F00100A1
:105620000C4948610846406900F00100009000BF45
:1056300000BF002211460B20FDF7BCFF0B20FDF739
:10564000A9FF002211461120FDF7B4FF1120FDF73C
:10565000A1FF08BD0010024000B587B0142102A8C8
:10566000FAF7F6FD00BF2648406940F4800024495F
:1056700048610846406900F48000019000BF00BF07
:1056800000BF0846406940F4003048610846406960
:1056900000F40030019000BF00BF00BF0846406921
:1056A00040F4802048610846406900F48020019061
:1056B00000BF00BF00224FF400414FF09040FDF7C3
:1056C00057FB002260210F48FDF752FB4FF40040CA
:1056D00002900120039000200490059002A94FF051
:1056E0009040FDF763FA60200290012003900020B3
:1056F0000490059002A90348FDF758FA07B000BDD1
:10570000001002400004004800B5ADB00020299010
:105710002A902B902C90542114A8FAF799FD002080
:10572000119012901390242108A8FAF791FD2021DE
:105730006846FAF78DFD884888490860002048606F
:10574000002186488160FDF7B5FB08B1FBF70FFD2E
:105750000C218248FDF718FB08B1FBF708FD0A2170
:105760007E48FDF791FC08B1FBF701FD4FF4344092
:10577000299000202A902B9008202C9029AA0521FE
:105780007648FDF7A6FC08B1FBF7F1FC0020149069
:1057900015901690179001201890002019901A90DB
:1057A0001B901C904FF000601D9000201E901F90D9
:1057B0004FF00050209014AA05216848FDF72AFEFA
:1057C00008B1FBF7D4FC4FF43440119011AB012227
:1057D00005216248FDF79AFC08B1FBF7C8FC29AA2D
:1057E00000215E48FDF775FC08B1FBF7C0FC002006
:1057F000149015902190229023904FF48070249063
:10580000002025902690102027900020289014AA90
:1058100000215248FDF7FEFD08B1FBF7A8FC00206F
:10582000259014AA03214D48FDF7F4FD08B1FBF7BC
:105830009EFC11AB012200214848FDF767FC08B12E
:10584000FBF795FC00201290139011AB022200216F
:105850004248FDF75BFC08B1FBF789FC11AB022263
:1058600003213E48FDF752FC08B1FBF780FC002005
:1058700008904FF49670099000200A900B900C90BD
:105880004FF496700D9000200E900F90109008AA83
:1058900000213248FDF7B8FA08B1FBF768FC4FF475
:1058A00080600890C82009900D9008AA03212B4819
:1058B000FDF7AAFA08B1FBF75AFC002000904FF45C
:1058C00080700190082002900020039004900590C1
:1058D000069007906B46012200212048FDF730FD1D
:1058E00008B1FBF744FC08200190400102906B4690
:1058F000402203211948FDF723FD08B1FBF737FCCF
:105900000020019002906B46022200211348FDF70F
:1059100017FD08B1FBF72BFC6B46802203210F48D3
:10592000FDF70EFD08B1FBF722FC29AA03210B4865
:10593000FDF7CFFB08B1FBF71AFC11AB01220321E5
:105940000648FDF7E3FB08B1FBF711FC0348FDF740
:105950004DFB2DB000BD000000740140440100204B
:1059600000B587B000200390049005900690009049
:10597000019002904FF08040134908604720486032
:105980000021114881606321C160002101618021F3
:105990008161FEF7B9FE08B1FBF7E9FB4FF48050D7
:1059A000039003A90848FEF749FF08B1FBF7DFFBA6
:1059B00000200090029069460348FEF75BFE08B1A4
:1059C000FBF7D5FB07B000BD2002002010B50D4845
:1059D0000D4908604FF4E130486000210A488160B9
:1059E000C16001610C21416100218161C1610162DD
:1059F0000020054948620846FFF715F908B1FBF792
:105A0000B6FB10BD004400406C02002000BFFEE762
:105A100000BFFEE77047704710B52B4890ED010AB4
:105A2000F2EE0C0AB4EEE00AF1EE10FA1BDD90ED96
:105A3000000ADFED260AB4EEE00AF1EE10FA12D207
:105A400000202349487241212248FDF7C3FC8221EE
:105A50002048FDF7BFFC1E48808840F020001C490C
:105A60008880042008801A48007900F0200048B39C
:105A700019480068401C1849086008460068B0F5DD
:105A8000C87F1FDD00200860144800780A280EDD5A
:105A90000B201249087000200D49487241210D4821
:105AA000FDF798FC82210B48FDF794FC0AE00B48B7
:105AB0000078401C094908700548808820F02000C3
:105AC0000349888010BD000020040020CDCC4C3F4D
:105AD0003803002044010020400000204400002042
